:100000000C947C000C94A4000C94A4000C9470023A
:100010000C949D020C94CA020C94A4000C9413201E
:100020000C94A4000C94A4000C94A4000C94C90C8F
:100030000C94A4000C94A4000C94A4000C94A400B0
:100040000C94C2190C94A4000C94021D0C94341D41
:100050000C94A4000C94A4000C94A4000C94A40090
:100060000C94E9100C94A40071047F0462048C04C5
:10007000A304D504C704D504D104BD04CD04CF0422
:10008000B517BB17C517D317D517DB17E517F31728
:10009000051807180000000800020100000304070B
:1000A0000000000000000000010204081020408051
:1000B00001020408102001020408102004040404B2
:1000C0000404040402020202020203030303030302
:1000D0000000000023002600290000000000250089
:1000E00028002B0000000000240027002A00020046
:1000F0003A06FF0FC815641D11241FBECFEFD8E0CC
:10010000DEBFCDBF13E0A0E0B1E0EAE0FAE402C058
:1001100005900D92A233B107D9F726E0A2E3B3E030
:1001200001C01D92AC37B207E1F710E0C8EFD0E094
:1001300004C02297FE010E942D22C03FD107C9F7BB
:100140000E9494210C9403250C940000833008F045
:1001500062C0482F440F440F440F485F453108F0F8
:1001600044E1582F550F550F550F90E071E054178B
:10017000E8F42EEF250F2231B0F4E52FF0E0DF0197
:10018000A35CBB4F2C91223070F4972BEE0FFF1F16
:10019000EE5EFB4F21E030E0A72FA62311F420E014
:1001A00030E031832083770F5F5FE1CF81110AC098
:1001B0009C7FF8942BB1892F809582239623892BDD
:1001C0008BB928C08130C9F46923F89425B1892FEF
:1001D0008F7380958223262F2F73822B85B988B148
:1001E00062956695669563709295969596959370CF
:1001F00090959823692B68B90DC09F70F89428B129
:10020000892F880F880F809582236923660F660FD8
:10021000862B88B9789408950F931F93CF93DF931B
:10022000EB01843180F5082F10E0F801E35CFB4F0F
:1002300090819330A1F0943031F582508231E0F416
:10024000F801EF57FC4F208130E0C901880F991F5A
:10025000820F931F8B569C4F0E94660E0DC08330F9
:1002600041F09BEF980F923020F097EF980F93306A
:1002700018F4BE010E94C61AF801EE0FFF1FEE5ED1
:10028000FB4FD183C083DF91CF911F910F910895D0
:10029000CF93C82F863058F5409157045091580499
:1002A00021E030E0082E02C0220F331F0A94E2F74B
:1002B000672B49F420953095242335233093580437
:1002C0002093570414C0242B352B309358042093CB
:1002D00057048091490381110AC08C2F0E94A91AEA
:1002E000AC016C2F8EE595E0CF910C949113CF91DA
:1002F0000895CF93DF93DC01FB0122835183408378
:100300001296CD91DC91139788819381892B8883F4
:1003100082818D7F813041F415968C911597938160
:10032000892B15968C93159782818150823040F4E9
:1003300016968C9116979381892B16968C93169707
:100340008091680014969C91892B80936800DF91BE
:10035000CF910895CF92DF92FF920F931F93CF9387
:10036000DF9300D01F92CDB7DEB76C01E62FF0E02F
:10037000E855FF4FF490FC0180859185009779F056
:100380008C01FC0183818F1106C0B801C6010E9457
:10039000790180E02FC0F80185819681EFCF87E059
:1003A00090E02B8349835A830E94A321DC012B8197
:1003B00049815A81009721F4109202008FEF1AC0F0
:1003C00012962C93129716961C921E9215971396BE
:1003D000FC921397F60180859185892B19F4B187DA
:1003E000A08703C0F801B683A583BD01C6010E94A2
:1003F000790181E00F900F900F90DF91CF911F91C5
:100400000F91FF90DF90CF900895242FE82FF0E018
:10041000E454FF4FE491EE23D9F061157105C1F06A
:10042000F0E03297E330F10540F4EE0FFF1FE050AB
:10043000FD4F0190F081E02D02C0E0E0F0E0A081EE
:10044000B1819C919783AB01682FCF010C94AA01D5
:100450008FEF0895FF920F931F93CF93DF93EC01DB
:10046000809177049F812D813E81F82EF094F322B4
:100470002823F22A9827F9228F83088519850115E8
:100480001105D9F0D80113969C918F2D892389F0FD
:1004900080917704892391E009F490E0F801948336
:1004A00080819181DC01ED91FC910190F081E02D42
:1004B0000995F80105811681E2CF8BB39C818923D0
:1004C00049F09BB3982B9BBBE881F9818081809395
:1004D0007704C6CFDF91CF911F910F91FF900895C0
:1004E0001F920F920FB60F9211242F933F934F93A9
:1004F0005F936F937F938F939F93AF93BF93EF938C
:10050000FF93E0916D04F0916E04808180937704F5
:100510008DE694E00E942A02FF91EF91BF91AF9186
:100520009F918F917F916F915F914F913F912F910B
:100530000F900FBE0F901F9018951F920F920FB63D
:100540000F9211242F933F934F935F936F937F9359
:100550008F939F93AF93BF93EF93FF93E0916304C7
:10056000F091640480818093770483E694E00E9494
:100570002A02FF91EF91BF91AF919F918F917F914F
:100580006F915F914F913F912F910F900FBE0F9000
:100590001F9018951F920F920FB60F9211242F9350
:1005A0003F934F935F936F937F938F939F93AF93FB
:1005B000BF93EF93FF93E0915904F0915A04808127
:1005C0008093770489E594E00E942A02FF91EF91DD
:1005D000BF91AF919F918F917F916F915F914F915B
:1005E0003F912F910F900FBE0F901F901895DB0138
:1005F0009A01909173039C30D0F540917403682F59
:1006000070E0442369F0E42FF0E0EC58FC4F808167
:10061000FB01EF57FC4F808341504093740307C0A8
:10062000FB01EF57FC4F90839F5F90937303FB0197
:10063000EF57FC4F1A161B067CF41216130664F4CF
:10064000408150E0CA01880F991F840F951FAD01AA
:100650008B569C4F0C94A10D208130E0C901880F6E
:10066000991F820F931F8B569C4F0C941F0E60E1B5
:1006700071E08EE595E00C942014CF93DF93C82FA2
:10068000D0E0CF57DC4F288130E0C901880F991F97
:10069000820F931F8B569C4F0E94250E888190914C
:1006A0007303891306C0882379F081508093730304
:1006B0000BC0992349F0E0917403EF5FE09374035A
:1006C000F0E0EC58FC4F80838FEF8883DF91CF916F
:1006D00008951F93CF93DF93162FC82FD0E0FE010C
:1006E000E65CFB4F90811923CF5ADB4F411103C0C9
:1006F0009881911741F0412F50E0682F8EE595E0E9
:100700000E94AA131883DF91CF911F91089583301F
:1007100020F5282F30E0F901EC5AFB4F6083672B5E
:10072000E1F0F901E65CFB4F9081811103C069B1F2
:100730006C7F0FC0813049F463B126B140E4249F3F
:10074000900111246F73622B04C066B16C736695BF
:100750006695692341E00C946903089580915404DF
:10076000882349F069B180913A0468236C7F40E0A6
:1007700080E00E94690380915504882379F063B179
:1007800086B120E4829FC00111246F73682B809191
:100790003B04682340E081E00E9469038091560495
:1007A000882359F066B16C736695669580913C0418
:1007B000682340E082E00C94690308951092BB0323
:1007C0008FEF80930B010895AF92BF92DF92EF926B
:1007D000FF920F931F93CF93DF9300D0CDB7DEB777
:1007E000D82E8B01E82EF12CC701835C9B4F5C0156
:1007F000FC0180818F3709F401C1863049F4809172
:10080000BB03882329F06630710511F00E94DE03D6
:100810004EEF4D0D4231B8F404301105A1F0F7014F
:10082000EF57FC4F20812C3070F430E0C901880F65
:10083000991F820F931F8B569C4F4A830E94CB0EA9
:100840004A818111C3C092EF9D0D963070F461E032
:1008500070E00230110511F060E070E0892F4A83EA
:1008600099830E94480199814A814231D8F4ED2D43
:10087000E695E695E6958D2D8770F0E0E65CFB4FFA
:1008800021E030E0082E01C0220F0A94EAF701159A
:10089000110521F48081822B808304C02095808102
:1008A00028232083F701EE0FFF1FEE5EFB4F11821E
:1008B00010820C30110508F078C0F801EC5CFF4F95
:1008C0000C942B22963008F099C0423140F460E03D
:1008D0008D2D0E944E1B60E08D2D0E94871B82E0B3
:1008E00061C0423108F08AC060E08D2D0E944E1B2D
:1008F00060E08D2D0E94871BF50110827FC0423180
:1009000008F07CC060E08D2D0E94871B61E08D2D7A
:100910000E944E1B81E046C0F3E0DF1649F08BEFEA
:100920008D0D823028F087EF8D0D833008F066C082
:1009300061E08D2D0E944E1B60E070E08D2D0E94C5
:10094000C61A83E02FC0423108F058C084E0F50198
:100950008083F701EF57FC4F80818F3FE9F190E0F2
:100960009C01220F331F280F391FC9018B569C4F42
:100970000E94CB0E811142C02FC060E08D2D0E94DD
:100980004E1B61E08D2D0E94871B89E00BC08EEE0F
:100990008D0D823098F586E005C08AE003C08BE0BB
:1009A00001C088E0F501808329C064E271E08EE532
:1009B00095E00F900F90DF91CF911F910F91FF90D5
:1009C000EF90DF90BF90AF900C9420148D2D4A8350
:1009D0000E943D034A8137CF4FEF5FEF6FEF7FEF0C
:1009E0008D2D0F900F90DF91CF911F910F91FF9060
:1009F000EF90DF90BF90AF900C94F7020F900F90A4
:100A0000DF91CF911F910F91FF90EF90DF90BF90FA
:100A1000AF900895CF93C0E08EEE8C0F823028F413
:100A200066E070E08C2F0E94E403CF5FC431A1F731
:100A300081E08093BB038EE994E0CF910C94710F19
:100A40000F931F93CF93DF9381E0809349038091AD
:100A5000BB0381110E94DE031092540410923A04E9
:100A6000109251041092550410923B0410925204BB
:100A70001092560410923C0410925304C1E8D3E043
:100A800010E00FEF82EF810F863018F462E070E023
:100A90000AC08EEF810F823120F4812F0E94FE1F49
:100AA00005C061E070E0812F0E94E40309931F5F9D
:100AB000143141F71092660310926503AFE5B3E07D
:100AC000E1E5F3E02FE72D9380819181892B11F0EF
:100AD00011821082329683E0A536B807A1F71092F2
:100AE00058041092570410924B0310924A0310922C
:100AF000740310927303109249038091480381118B
:100B000008C081E080934803DF91CF911F910F913E
:100B1000089528E088E190E00FB6F894A8958093B6
:100B200060000FBE20936000FFCF24E042E065E349
:100B300071E08EE595E00E94B8124CE051E060EE65
:100B40008EE595E00E942E1446EA50E060E98EE5BD
:100B500095E00E942E1448E451E060EC8EE595E0AB
:100B60000E942E1447E853E060ED8EE595E00E9468
:100B70002E1444EE53E064EF8EE595E00E942E14AF
:100B800042E157E060EF8EE595E00E94591440E2A3
:100B900055E06FEF8EE595E00E94511410926603C8
:100BA000109265031092680310926703A0E6B3E009
:100BB000E3E5F3E02FE72D9380819181892B11F0FC
:100BC00011821082329683E0A536B807A1F76091B2
:100BD0000C0170910D0188E290E00E94C221709397
:100BE0006A036093690340E051EE60E070E08EE5D7
:100BF00095E00E94B1150C9420050F931F93CF939D
:100C0000DF93CDB7DEB7C654D1090FB6F894DEBF77
:100C10000FBECDBF8C012AE0CE018F5B9F4F0E949B
:100C20003C2120E030E040E450E0BE016F5F7F4FA8
:100C3000CE018F5B9F4F0E946921B8018EE595E040
:100C40000E942014BE016F5F7F4F8EE595E00E94E9
:100C50002014CE018F5B9F4F0E94B620CA5BDF4FEE
:100C60000FB6F894DEBF0FBECDBFDF91CF911F91BD
:100C70000F910895CF93DF93E4EDF0E08591949187
:100C800090936E0480936D048BE690E090937004D3
:100C900080936F0481E0809371041092720410922B
:100CA00073041092760410927504E6EDF0E08591DD
:100CB000949190936404809363048CE690E0909305
:100CC00066048093650482E0809367041092680450
:100CD0001092690410926C0410926B04E8EDF0E03D
:100CE0008591949190935A04809359048DE690E0F5
:100CF00090935C0480935B0484E080935D04109285
:100D00005E0410925F041092620410926104C5E9BF
:100D1000D3E0CE010E94850D239683E0C93BD8071E
:100D2000C1F7DF91CF910895682F8EE994E00C947C
:100D3000320FAF92BF92DF92EF92FF920F931F9309
:100D4000CF93DF931F92CDB7DEB7F82E5B01D42E81
:100D50006F3F8FEF7807D1F06F2D8EE994E02983F4
:100D60000E947B0F6A2D8EE994E00E94320F298148
:100D7000622F8EE994E00E94850F8091B9039091D3
:100D8000BA03009729F00E94631A02C0A12CB12C6B
:100D90004D2D6F2D8EE994E00E94F90F0D2D10E07E
:100DA0008EE994E00E94DA0E08171907C1F4F09258
:100DB000BC03A092BD036EEBE62E63E0F62EA12CE1
:100DC000B12CA016B106DCF48EE994E00E94E20E8C
:100DD000F70181937F01FFEFAF1ABF0AF2CF8EE9CF
:100DE00094E00E94DA0E801791071CF463E971E029
:100DF00002C060EB71E08EE595E00E94201442E0B5
:100E00004D0D2CEB33E067E78EE595E00F90DF9119
:100E1000CF911F910F91FF90EF90DF90BF90AF9017
:100E20000C94D8136F927F928F929F92AF92BF9241
:100E3000CF92DF92EF92FF920F931F93CF93DF93A6
:100E4000CDB7DEB727970FB6F894DEBF0FBECDBF84
:100E5000162F7A018D3609F418C2A8F4803609F4E9
:100E60007BC238F4803509F448C18F3509F492C249
:100E7000D6C3893609F458C28B3609F49CC1823630
:100E800009F0CDC3ADC2823709F4F9C238F48F3608
:100E900009F46EC1803709F4FAC0C1C3883709F478
:100EA000DFC08A3709F442C1863709F0B8C3DA01D6
:100EB00011962C91922F987125FF03C06CEC71E074
:100EC000A5C3FA01808126FB222720F931E02327E0
:100ED000983041F148F49111A2C3682F8EE994E053
:100EE0000E947B0F02E006C09031B9F1983109F4FD
:100EF00069C095C3011768F4F701E00FF11D9181F6
:100F00008081F0E89F9F801911240E9494060E5F53
:100F1000F1CF8EE994E00E94FC0F86E490E00E94FD
:100F2000631A7DC342816381163071F4B0E86B9F10
:100F3000B0011124640F711DF70195814481F0E81F
:100F40009F9F4019112406C030E8639F4019112467
:100F50006FEF7FEF0E94990662C3E0910B01E730CB
:100F60001CF06CEE71E052C3DA0112969C9112975C
:100F700013964C91663089F4B0E84B9FA001112480
:100F8000490F511DD70115963C91159714969C91C8
:100F9000B0E83B9F9019112406C0F0E84F9F9019CC
:100FA00011244FEF5FEFEF5FE0930B0135E0E302B9
:100FB000F0011124E452FC4F8083528341839383D8
:100FC00024832DC360910B0116163CF470E0262F8C
:100FD000332727FD309595E00FC08FEF80930B01ED
:100FE0001EC3949FF001959FF00D1124E452FC4F15
:100FF0004081481739F07F5F472F50E024173507AD
:1010000084F770E015E0872F90E02817390724F166
:10101000783000F5AC014F5F5F4F149FD001159FF2
:10102000B00D1124A452BC4F4C91189FF001199F90
:10103000F00D1124E452FC4F408311968D919C9148
:1010400012979283818313968C91139783831496BE
:101050008C9184837F5FD7CF615060930B01DFC297
:10106000DA012C9111968C91B0E88B9FC00111246C
:10107000820F911D009721F09093BA038093B903DA
:101080008091BB038111CBC20E940A05C8C26530A2
:1010900008F4C5C2FA0110810181D280C380F480B6
:1010A0008EEF810F823108F0BAC2E12FF0E0EF57E6
:1010B000FC4FE081EC3060F4F0E0CF01880F991F25
:1010C0008E0F9F1F8B569C4F0E94CB0E8111A3C287
:1010D000F0E8FF9EA00111244C0D511D20E8D29E86
:1010E000B0011124600F711D812F0E94F70264E08E
:1010F00070E0812F0E94E40392C2DA012C911196D4
:101100008C91B0E88B9FC0011124820F911D9093A8
:101110000504809304040E940C1A609306047093E3
:101120000704809308049093090479C2623008F49C
:1011300076C2FA0120818181F0E88F9FC0011124DD
:10114000820F911D8A30910510F48AE090E090930F
:101150000D0180930C0160910C0170910D0188E2EA
:1011600090E00E94C22170936A036093690357C2A2
:10117000623008F454C2DA0111966C91119770E054
:101180001230A1F012968C91B0E88B9FC00111240F
:10119000682B792B133051F0FA01838190E090E4B1
:1011A000899F902D88271124682B792BD7018C914A
:1011B0000E940C0134C260EF8EE595E00E94241479
:1011C0006CE68EE595E00E9424141EEF84EF810FFB
:1011D000863058F462E08EE595E00E9424146AE0BF
:1011E0008EE595E00E9424140DC0113059F463E09F
:1011F0008EE595E00E94241468E08EE595E00E945B
:10120000241408C08DEF810F823088F389EF810F9D
:10121000833068F3123150F464E08EE595E00E946B
:1012200024146EE08EE595E00E94241480EF810F77
:10123000823050F466E08EE595E00E94241461E06F
:101240008EE595E00E9424146FE78EE595E00E94FC
:1012500024141F5F123109F4CEC1123108F0B6CF49
:1012600060E08EE595E00E94241461E08EE595E053
:101270000E94241461E08EE595E00E94241461E050
:101280008EE595E00E942414A1CF662309F4C7C11E
:10129000FA01008160EF8EE595E00E9424146EE66D
:1012A0008EE595E00E942414602F8EE595E00E9463
:1012B0002414043108F09FC110E0F801E35CFB4FF7
:1012C00060818EE595E00E942414000F111F9801A3
:1012D0002E5E3B4F7901D9016C916F778EE595E0D9
:1012E0000E942414F70160817181CB018078892BE1
:1012F00049F0660F672F661F770B6F778EE595E0D5
:101300000E942414F801EE5EFB4F60817181CB01D5
:101310008827907C892B09F46EC1770F660B770FB5
:10132000762F661F6F7763C160EF8EE595E00E94B0
:1013300024146AE68EE595E00E94241412EF16301C
:1013400010F06FE701C0612F8EE595E00E94241434
:101350001F5F1630A1F74FC1DA014C914093700323
:1013600011962C9120936F038091400381110EC040
:101370008FE193E0909333038093320361E682E33D
:1013800093E00E94141981E08093400381E08093F0
:101390006B0345C1FA019081818191111BC0948139
:1013A0002581F0E82F9F90011124290F311D44273A
:1013B00037FD4095542FD70112969C9112971396A2
:1013C0006C91B0E86B9FB0011124690F711D0E94F0
:1013D000CF1D25C1913009F022C10E94FE1F1FC1FF
:1013E0002091650330916603263031050CF044C02E
:1013F000FA01808180935003918190934F039281F1
:10140000913208F491E290930A01D70113969C91CE
:10141000139714960C91B0E80B9F80011124090FCB
:10142000111DF901E15AFC4F80836BE070E00E94CE
:10143000E4036BE070E080914F030E94E40382E1DB
:1014400090E00E94A3217C01980140914F0360919C
:1014500050030E94CC158091650390916603FC01B6
:10146000EE0FFF1FEF5AFC4FF182E082019690933E
:10147000660380936503D3C06DEF71E0C7C0FA01C6
:10148000808181114FC08181C280F0E8CF9E6001D0
:101490001124C80ED11CDA0113968C901397912C4D
:1014A00014966C90712C653079F48AE190E00E947A
:1014B000A3218C019301A401B6010E94C1161093CF
:1014C0004B0300934A03ABC06730A1F4FA010581D6
:1014D00010E0E680F12C8AE190E00E94A3215C01FB
:1014E0009301A401B6010E94E716B0924B03A092AB
:1014F0004A0395C087E0E9EFF2E0DE011196019022
:101500000D928A95E1F76AE372E08EE595E00E941C
:101510002014412F50E060E070E0CE0101960E945F
:10152000FD057DC0813009F042C0DA01428150E002
:1015300060E070E0F7E0440F551F661F771FFA95D3
:10154000D1F713968C9190E0A0E0B0E01EE0880FF8
:10155000991FAA1FBB1F1A95D1F7482B592B6A2B2D
:101560007B2BF7018181482B84810581F0E80F9F57
:1015700080011124080F111DD7011696FC9080914F
:101580004A0390914B03009779F00E941D17F110C8
:1015900003C0119501951109B80180914A039091FA
:1015A0004B030E9424183BC06AE672E02FC08230D1
:1015B00059F580914A0390914B03009711F10E94D5
:1015C000AD188C0160EF8EE595E00E94241462E76F
:1015D0008EE595E00E942414602F6F778EE595E0EC
:1015E0000E942414B801660F672F661F770B8EE5E3
:1015F00095E00E94241467EF8EE595E00E94241484
:101600000EC066E972E002C06BEC72E08EE595E018
:101610000E94201404C0812F0E943D0359CD2796BB
:101620000FB6F894DEBF0FBECDBFDF91CF911F91F3
:101630000F91FF90EF90DF90CF90BF90AF909F9071
:101640008F907F906F9008958F929F92AF92BF92EC
:10165000CF92DF92EF92FF920F931F93CF93DF937E
:101660000E94AE038EE595E00E941813892B29F0A5
:101670008EE595E00E948414F5CF0E940C1A6093C9
:101680000E0470930F048093100490931104C09083
:101690000A04D0900B04E0900C04F0900D044091EB
:1016A0000C0150910D014A01A12CB12C8B019C0120
:1016B0000C191D092E093F0980169106A206B306D2
:1016C00008F05AC1D501C4018C0D9D1DAE1DBF1D72
:1016D00080930A0490930B04A0930C04B0930D0420
:1016E00080916703909168039C012F5F3F4F309377
:1016F0006803209367032091690330916A032817D8
:1017000039070CF064C0109268031092670380914F
:10171000650390916603892B09F459C0E0915D033C
:10172000F0915E03EE0FFF1FEF5AFC4F8081918115
:101730000E94921669E370E00E94C221CB014091A1
:101740005D0350915E0340934E039A012F5F3F4F1C
:1017500030935E0320935D0320916503309166030F
:10176000215031094217530724F010925E03109262
:101770005D036F7760934C03880F892F881F990B47
:1017800080934D0360EF8EE595E00E94241463E69C
:101790008EE595E00E942414E0914E03F0E0E15ABA
:1017A000FC4F60818EE595E00E94241460914C030B
:1017B0008EE595E00E94241460914D038EE595E03E
:1017C0000E94241467EF8EE595E00E942414CDE377
:1017D000D4E012EF1630C0F488818230A9F4209151
:1017E000570430915804012E02C0359527950A946C
:1017F000E2F720FF09C0812F0E94A91AAC01612FD6
:101800008EE595E00E9491131F5F2196163011F727
:1018100080910B0187FF06C080916B03882309F438
:101820006BC01CC0C0E0D5E08C2F90E020910B0174
:10183000332727FD30952817390774F3D89FF00117
:10184000D99FF00D1124E452FC4F618172812481F3
:10185000438180810E949906CF5FE6CF1092720388
:101860001092710310926C030E9495190097A1F0D9
:101870000E94B51980936C0320916D0330916E0323
:10188000181614F0882341F0280F311D87FD3A9572
:1018900030936E0320936D0380916D0390916E03DE
:1018A000282F2F7720937103880F892F881F990B7A
:1018B0008F778093720360EF8EE595E00E94241489
:1018C00061E68EE595E00E942414609170038EE538
:1018D00095E00E942414609171038EE595E00E94CA
:1018E0002414609172038EE595E00E94241467EF42
:1018F0008EE595E00E9424148091040490910504E3
:10190000892BD1F10E940C1A60930E0470930F047E
:101910008093100490931104009106041091070421
:101920002091080430910904AB01BC01401B510B0C
:10193000620B730BE0910404F091050428EE33E090
:10194000E29FC001E39F900DF29F900D1124A0E053
:10195000B0E084179507A607B70770F4DF91CF9121
:101960001F910F91FF90EF90DF90CF90BF90AF90BD
:101970009F908F900C942005DF91CF911F910F9134
:10198000FF90EF90DF90CF90BF90AF909F908F909F
:1019900008951F920F920FB60F9211242F933F9329
:1019A0004F935F936F937F938F939F93AF93BF9367
:1019B000EF93FF938091790487FF05C01092850013
:1019C000109284001AC020917904332727FD3095A6
:1019D0008091780490E0281739077CF4809179048D
:1019E000992787FD9095FC01EE0FFF1FE80FF91F67
:1019F000E658FB4F808186FD15C0809179048F5F8A
:101A00008093790420917904332727FD30958091C4
:101A1000780490E028173907BCF4809179048C3061
:101A20005CF112C080917904992787FD9095FC01A3
:101A3000EE0FFF1FE80FF91FE658FB4F808160E0B3
:101A40008F730E94871BD9CF80918400909185006D
:101A5000049680349C4918F480E49CE905C0809188
:101A6000840090918500049690938900809388006B
:101A70008FEF8093790438C02091840030918500E5
:101A800080917904992787FD9095FC01EE0FFF1F47
:101A9000E80FF91FE658FB4F81819281820F931F57
:101AA000909389008093880080917904992787FD1D
:101AB0009095FC01EE0FFF1FE80FF91FE658FB4F52
:101AC000808186FF11C080917904992787FD9095C8
:101AD000FC01EE0FFF1FE80FF91FE658FB4F808156
:101AE00061E08F730E94871BFF91EF91BF91AF91CF
:101AF0009F918F917F916F915F914F913F912F9126
:101B00000F900FBE0F901F901895209178042C30E5
:101B1000A0F431E0320F30937804FC012083822F4F
:101B200090E0FC01EE0FFF1FE80FF91FE658FB4F96
:101B300088EB9BE09283818308952FEFFC01208343
:101B40000895DF92EF92FF920F931F93CF93DF934D
:101B5000EC01D62E7A01890188818C3008F066C0AC
:101B600061E08D2D0E944E1B8881A82FB0E0FD0101
:101B7000EE0FFF1FEA0FFB1FE658FB4F2D2D2F73B3
:101B80009081907C922B908360E272E06E197F09C5
:101B900077FF02C06D5F7F4F759567957595679567
:101BA000698340E659E0401B510B57FF02C04D5F6F
:101BB0005F4F55954795559547954A836CE00E9430
:101BC000B6219CE0899FB001112420E030E0A901FA
:101BD000460F571FFA01EE0FFF1FE40FF51FE658DF
:101BE000FB4F908196FD16C02F5F3F4F2C30310583
:101BF00071F781110FC01092800082E08093810004
:101C00001092850010928400B19A80916F008260DA
:101C100080936F00888190E0FC01EE0FFF1FE80FBA
:101C2000F91FE658FB4F8081806480838881DF91B3
:101C3000CF911F910F91FF90EF90DF90089520E6D4
:101C400039E040E252E00C94A10DFC01808190E06B
:101C5000FC01EE0FFF1FE80FF91FE658FB4F8081D4
:101C60008F7B80830895FC0180818C3070F5918199
:101C700028E830E0291B310997FD3395220F331FE7
:101C8000220F331F621773077CF0928128E532E040
:101C9000291B310997FD3395220F331F220F331F64
:101CA000621773070CF49B0122503109220F331F76
:101CB0004FB7F89490E0FC01EE0FFF1FE80FF91FFB
:101CC000E658FB4F328321834FBF08954F925F92B6
:101CD0006F927F92AF92BF92CF92DF92EF92FF927C
:101CE0000F931F93CF93DF93EC01603282E078076C
:101CF0000CF040C077FD06C0653B71052CF064EB2D
:101D000070E002C060E070E0898128E830E0281BC4
:101D1000310987FD3395220F331F220F331F5901DD
:101D2000CC24B7FCC094DC2C882777FD8095982FB5
:101D30002A8148E552E0421B510927FD5395440F83
:101D4000551F440F551F2A01662457FC6094762CBA
:101D50007F926F925F924F9214EBE12EF12C00E094
:101D600010E020E030E0A9010E946F200F900F905A
:101D70000F900F90CE01DF91CF911F910F91FF90A7
:101D8000EF90DF90CF90BF90AF907F906F905F907B
:101D90004F900C94330EFC01808190E0FC01EE0F1B
:101DA000FF1FE80FF91FE658FB4F808186FB88274D
:101DB00080F908958091CE0490E02091CF04821B99
:101DC000910908952091CF048091CE04281750F4F2
:101DD000E22FF0E0E053FB4F808190E02F5F2093F3
:101DE000CF0408958FEF9FEF0895E091CF04809185
:101DF000CE04E81730F4F0E0E053FB4F808190E030
:101E000008958FEF9FEF08950895CF92DF92EF929C
:101E1000FF920F931F93CF93DF937C01CB018A0135
:101E20002091AA04222389F0EB016B01C40ED51E78
:101E3000CC15DD0569F06991D701ED91FC91019018
:101E4000F081E02DC7010995F3CF642F0E94C010E7
:101E5000C801DF91CF911F910F91FF90EF90DF901C
:101E6000CF900895CF93DF931F92CDB7DEB76983EC
:101E70002091AA042223D1F02091AB04203240F01B
:101E800021E030E0FC013383228380E090E015C044
:101E90008091AC04E82FF0E0E355FB4F99819083EB
:101EA0008F5F8093AC048093AB0405C061E0CE01EA
:101EB00001960E94C01081E090E00F90DF91CF91D9
:101EC0000895FC011382128248EE53E060E070E056
:101ED00044835583668377838AE093E0918380838C
:101EE00008951092CF041092CE041092AC04109278
:101EF000AB040C94031081E08093AA046093CD049A
:101F00001092AC041092AB0408950F93062F21E0B9
:101F10004091AB046DEA74E08091CD040E94691099
:101F20001092AC041092AB041092AA040F91089581
:101F30008F929F92AF92BF92CF92DF92EF92FF92D9
:101F40000F931F93CF93DF93EC01F62ED42E48010D
:101F50005901EE2019F10E947B0F1E2D143008F05C
:101F600013E01150B8F0E881F98128E0129FB00128
:101F70001124A501940104C05695479537952795DE
:101F80006A95D2F7CA01B9010190F081E02DCE0126
:101F90000995E7CF60E0CE010E94850F4D2D4132BB
:101FA00008F040E22C2D60ED74E08F2D0E9421108E
:101FB0001092CF048093CE04DF91CF911F910F91A7
:101FC000FF90EF90DF90CF90BF90AF909F908F9059
:101FD0000895CF92EF920F931F93C22EE12C00E051
:101FE00010E098010E94980F1F910F91EF90CF90F1
:101FF000089521E00C94E90F61E00C94850F8EE9BF
:1020000094E00C94610F10925D0581E080935B0574
:1020100010925A0561E082E10E94871B61E083E132
:102020000E94871BE9EBF0E080818E7F80838081B6
:102030008D7F808388E48093B80085E48093BC0022
:102040000895413208F043C090915D059111FCCF95
:1020500091E090935D0520935B052FEF2093F004B2
:1020600010923505240F2093340590935C059091D0
:102070005C05880F892B80935C0580915A0581301F
:1020800061F410925A0580915C058093BB008091A9
:10209000BC0083FDF8CF85EC01C085EE8093BC00C9
:1020A00080915D058130E1F380913505841710F44E
:1020B0004091350526E335E0FB01D9018A2F821BCB
:1020C000841718F48D918193F9CF842F089580E0BF
:1020D00008950F93413208F04AC090915D05911127
:1020E000FCCF92E090935D0500935B059FEF90938A
:1020F000F0041092350540933405FB0166E375E06A
:10210000DB019A2F961B941718F491919D93F9CFA8
:1021100010925C0590915C05880F892B80935C057B
:1021200080915A05813061F410925A0580915C05C6
:102130008093BB008091BC0083FDF8CF85EC01C08B
:1021400085EE8093BC00222321F080915D058230D2
:10215000E1F38091F0048F3F61F08091F0048032D0
:1021600051F08091F004803341F483E007C081E0B6
:1021700005C080E003C082E001C084E00F910895B3
:10218000613298F420915D05243089F46093120542
:10219000FC0184E195E0DC012A2F281B261718F4A6
:1021A00021912D93F9CF80E0089581E0089582E098
:1021B000089585ED8093BC008091BC0084FDFCCF28
:1021C00010925D05089585EC8093BC0010925D052A
:1021D00008951F920F920FB60F9211242F933F93E1
:1021E0004F935F936F937F938F939F93AF93BF931F
:1021F000EF93FF938091B900887F803609F49EC0E9
:1022000078F5883209F45DC090F4803109F456C045
:1022100038F4882309F4F5C0883009F44FC0F5C0BC
:10222000883109F44EC0803209F45FC0EEC08034BA
:1022300009F46AC058F4803309F457C0883309F0B0
:10224000E4C08093F0040E94E310DFC0803509F4FD
:102250004FC0883509F45DC0883409F0D6C0D3C0BA
:10226000883909F4C4C0A8F4883709F467C038F481
:10227000883609F463C0803709F460C0C6C0883866
:1022800009F4B5C0803909F45FC0803809F0BDC0D9
:102290005BC0803B09F483C038F4803A09F466C01F
:1022A000883A09F47CC0B1C0803C09F4A4C0883CE1
:1022B00009F4A1C0883B09F487C0A7C080915C05E0
:1022C00010C09091350580913405981770F5E09114
:1022D000350581E08E0F80933505F0E0EA5CFA4F1A
:1022E00080818093BB0085EC83C08093F0048BC019
:1022F000E091350581E08E0F809335058091BB001C
:10230000F0E0EA5CFA4F80839091350580913405C6
:102310006BC0E091350581E08E0F8093350580918B
:10232000BB00F0E0EA5CFA4F808380915B0581118D
:102330006AC081E080935A0584EA5EC083E080939E
:102340005D051092F104CFCF8091F104803208F046
:102350004EC0E091F10481E08E0F8093F1048091F2
:10236000BB00F0E0EE50FB4F8083BDCF0E94E31036
:102370008091F104803230F4E091F104F0E0EE500D
:10238000FB4F10826091F10470E0E0915605F091EE
:10239000570582EF94E009951092F10436C084E06D
:1023A00080935D051092130510921205E091580577
:1023B000F0915905099580911205811105C081E0C0
:1023C0008093120510921405E091130581E08E0FA1
:1023D00080931305F0E0EC5EFA4F80818093BB00A0
:1023E0009091130580911205981708F47CCF85E829
:1023F0008093BC000AC085EC8093BC0010925D0500
:1024000004C01092F0040E94D910FF91EF91BF9187
:10241000AF919F918F917F916F915F914F913F917C
:102420002F910F900FBE0F901F9018950F931F9331
:10243000CF93DF93EC018B0188819981DC01ED91D1
:10244000FC916F770190F081E02D09958881998149
:10245000DC01ED91FC91B801660F672F661F770BC9
:102460006F770190F081E02DDF91CF911F910F9157
:102470000994DC018D919C91DC01ED91FC9101901E
:10248000F081E02D60EF0994DC018D919C91DC01DD
:10249000ED91FC910190F081E02D67EF0994CF93CD
:1024A000DF93EC0188819981DC01ED91FC91019031
:1024B000F081E02D69EF099588819981DC01ED912A
:1024C000FC910190F081E02D62E00995888199816D
:1024D000DC01ED91FC910190F081E02D64E0DF9151
:1024E000CF9109941F93CF93DF93EC018A818823C6
:1024F000D9F1CE010E94391288819981DC01ED91D8
:10250000FC910190F081E02D69E70995888199811E
:10251000DC01ED91FC91AB81BC810190F081E02D5B
:102520006C91099588819981DC01ED91FC91AB81D9
:10253000BC810190F081E02D11966C91099512E01B
:102540008A81181758F4EB81FC81E10FF11D60813D
:1025500070E0CE010E9416121F5FF2CFCE01DF9114
:10256000CF911F910C944412DF91CF911F91089548
:10257000CF92DF92EF92FF920F931F93CF93DF934F
:102580008C01EB01C42ED22E66E173E0CE010E94D5
:1025900066247C016FE270E0CE010E945B2400970C
:1025A00039F46CE570E0CE010E945B24009711F0D5
:1025B000EC012196E114F10451F4FE010190002098
:1025C000E9F7EC1BEF5FD8011296EC9306C0EC1A0A
:1025D000FD0AE394E394F801E282D80113968D9109
:1025E0009C9114970E94E322F801E280F12CC7012C
:1025F00001960E944B22D80114969C938E931397B8
:10260000FC01EE0DFF1D1082FC01C082D1821296EA
:102610004C9150E042505109BE010296DF91CF919A
:102620001F910F91FF90EF90DF90CF900C944C246E
:10263000DC018D919C91DC01ED91FC910480F58190
:10264000E02D09940F931F93CF93DF93FC01208516
:10265000213749F0293709F049C0DF91CF911F9107
:102660000F910C947212FC01E95AFF4F0190F08116
:10267000E02D309709F450C0DC01A75BBF4F4D91AE
:102680005C919A012150310937FD9A01B901759584
:102690006795062F40E050E020E030E04E5F5F4F4E
:1026A0002017A0F4EC01C40FD51F1F81DC01A20F7D
:1026B000B31F18961C931897C885D0E8CD9F1019A2
:1026C000112418961C932F5F3F4FE8CFDC01A60F13
:1026D000B11D17962C911797222311F018961C9272
:1026E0000896DF91CF911F910F910994FC01E75A51
:1026F000FF4F0190F081E02D309771F0AC01475F02
:102700005F4FDC01A75BBF4F6C916150822FDF915F
:10271000CF911F910F910994DF91CF911F910F914C
:1027200008950F931F93CF93DF93EC018A01888163
:102730009981DC01ED91FC916F70606E0190F081E8
:10274000E02D0995B801CE01DF91CF911F910F9136
:102750000C9416120F931F93CF93DF93EC018A0111
:1027600088819981DC01ED91FC916F706069019025
:10277000F081E02D099588819981DC01ED91FC9132
:10278000602F6F770190F081E02D09958881998104
:10279000DC01ED91FC91B801660F672F661F770B86
:1027A0000190F081E02DDF91CF911F910F9109945D
:1027B000CF92DF92EF92FF920F931F93CF93DF930D
:1027C00000D01F92CDB7DEB78C01F42E2A833B8355
:1027D00069830E943912D8018D919C91DC01ED91A1
:1027E000FC910190F081E02D698109952A81E22E0A
:1027F000C22E3B81D32E8C2D8E198F1540F4F601FD
:1028000061916F0170E0C8010E941612F4CFC801F7
:102810000F900F900F90DF91CF911F910F91FF902C
:10282000EF90DF90CF900C9444129A01FA0101903E
:102830000020E9F73197E41BF50B4E2F0C94D813C9
:10284000AB0161E70C941514DC018D919C91DC01C6
:10285000ED91FC910190F081E02D0994603DB9F07B
:1028600028F4603961F0603C71F00895603E19F021
:10287000643F89F00895FC01E55BFF4F0FC0FC0148
:10288000E35BFF4F0BC0FC01E15BFF4F07C0FC01A6
:10289000EF5AFF4F03C0FC01ED5AFF4F51834083B5
:1028A00008956F3F29F4FC01EB5AFF4F5183408399
:1028B0000895875A9F4FFC01518340830895FC017E
:1028C00015821682178280E090E0DF01A80FB91F01
:1028D00018961C92019680349105B9F7DF01A85B28
:1028E000BF4F1C9211961D921C92EB5AFF4F019004
:1028F000F081E02D309709F009940895FC011282CF
:10290000148213820C945F14CF93DF93EC018881BF
:102910009981DC01ED91FC910680F781E02D09950C
:10292000FE01E85BFF4F20812223B1F0873F910534
:1029300031F41082CE01DF91CF910C942213FE016D
:10294000E75BFF4F20813181C20FD31F88872F5F44
:102950003F4F318320839DC02D81222309F45EC027
:10296000803891050CF05AC09FEF920F9D83FE01B5
:10297000E90FF11D808791118CC08E81882309F4A5
:1029800088C0803DE9F148F48039E9F0803C09F0E5
:1029900043C0FE01E15BFF4F36C0803E19F0843F2B
:1029A00019F13AC0FE01E55BFF4F0190F081E02D87
:1029B000309791F18885698570E0B0E88B9F600D54
:1029C000711D112427C0FE01E35BFF4F0190F081D0
:1029D000E02D309709F18885698570E090E8899F3E
:1029E000600D711D112416C0FE01ED5AFF4F0190BC
:1029F000F081E02D309781F0688570E089850BC00B
:102A0000FE01EF5AFF4F0190F081E02D309721F049
:102A1000688570E08F8109951E823BC0803F9105DB
:102A20002CF4282F2F702F83807F9927803E9105CB
:102A300021F154F4803C910511F1803D9105F9F0AC
:102A40008039910531F519C0843F9105B1F054F4F6
:102A5000803F9105F1F481E08083C75BDF4F1982ED
:102A6000188217C0893F910571F08F3F910589F455
:102A7000CE01DF91CF910C945F1492E001C091E000
:102A80009D838E8306C08EE595E0DF91CF910C94F7
:102A90004F12DF91CF9108958F929F92AF92BF9284
:102AA000CF92DF92EF92FF921F93CF93DF93EB01D0
:102AB0004A01690161E08DE00E944E1B10E0EE24A6
:102AC000D7FCE094FE2CAA2497FCA094BA2C812F6A
:102AD00090E08C179D0794F4C701B6010E943B1A41
:102AE00061E08DE00E94871BC501B4010E943B1A82
:102AF00060E08DE00E94871B1F5FE9CFDF91CF91DF
:102B00001F91FF90EF90DF90CF90BF90AF909F907C
:102B10008F900895CF93DF93EC0161E08DE00E94E8
:102B20004E1B22ED30E048E250E062E070E0CE0162
:102B30000E944C156AEF70E080E090E00E943B1A22
:102B400022ED30E048E250E064E070E0CE010E9407
:102B50004C156DE770E080E090E0DF91CF910C9430
:102B60003B1ACF93DF93EC0126E086EC95E00E94C0
:102B7000A01C86EC95E099838883CE010E948A157B
:102B8000CE010E944F12CE01DF91CF910C947212B0
:102B90008EE595E00C947E14CF93DF93DC0170E01A
:102BA000FB01E855FF4FE4911496EC931497842FA2
:102BB00090E0FC01E855FF4FE4911596EC931597D2
:102BC00064547F4FFB01C491D0E0CC0FDD1FC6528F
:102BD000DF4FFE014591549117965C934E931697E3
:102BE000FC01E454FF4F849190E0880F991F8053BB
:102BF0009F4FFC01459154911B965C934E931A97FD
:102C0000FB016491E62FF0E0EE0FFF1FEC51FF4F48
:102C10008591949119969C938E931897C901253F9D
:102C2000F1E03F0714F084EF91E049E3489F900101
:102C3000499F300D1124245E3F4F1D963C932E93E7
:102C40001C97DF91CF9108950F931F93CF93DF933C
:102C5000EC01E885F98580819C81892B8083EE8158
:102C6000FF8190818C8180958923808384E090E02E
:102C70000E94631AEE81FF8180819C81892B808371
:102C80008AE090E00E94631AEE81FF8190818C813E
:102C9000809589238083E885F98590818C81809552
:102CA000892380830E94181A605B794B8F4F9F4F56
:102CB0006E877F87888B998BEA85FB8580819D81D4
:102CC000892359F00E94181A0E851F852889398991
:102CD000061717072807390778F7EA85FB858081EB
:102CE0009D81892369F40E94181A0E851F85288901
:102CF0003989061717072807390778F780E00DC0CC
:102D00000E94181A2C853D85620F731F811D911D2D
:102D10006E877F87888B998B81E0DF91CF911F91A0
:102D20000F9108950F931F93CF93DF93EC010E94AF
:102D30002416882389F0EA85FB8580819D8189237B
:102D400071F00E94181A0E851F8528893989061787
:102D500017072807390778F720E030E00CC00E94F9
:102D6000181A2C853D85255031094E855F85241B19
:102D7000350B260F371FC901DF91CF911F910F919E
:102D80000895CF93DF93EC01842F1B861A86198256
:102D900018821E8A1F8A188E198E7F836E834C8735
:102DA0005D873F872E8761E00E944E1B61E08E8524
:102DB0000E944E1B198A188A1B8A1A8A1D8A1C8A2D
:102DC00082E090E099878887DF91CF910895EF9214
:102DD000FF920F931F93CF93DF93EC01842F1B86F9
:102DE0001A86198218821E8A1F8A188E198E7F836E
:102DF0006E834C875D873F872E87198B088BFB8AF4
:102E0000EA8A61E00E944E1B61E08E850E944E1BA3
:102E100061E088890E944E1B61E08A890E944E1BF6
:102E20001D8A1C8A84E090E099878887DF91CF9182
:102E30001F910F91FF90EF900895CF92DF92EF9244
:102E4000FF92CF93DF93EC016A017B012E813F81DA
:102E5000442737FD4095542F60E077E883E993E0FD
:102E60000E940C22CA01B901A70196010E940C22FE
:102E70002A833B834C835D83DF91CF91FF90EF905A
:102E8000DF90CF9008950F931F93CF93DF93EC01C2
:102E90008B01888599850297F9F46130710571F08D
:102EA0002CF461157105C1F460E009C06230710550
:102EB00059F06330710581F460E007C061E08C85F2
:102EC0000E94871B61E005C061E08C850E94871B22
:102ED00060E08E850E94871B888599850497B9F5E7
:102EE00001301105B1F04CF40115110581F561E0D7
:102EF0008C850E94871B60E011C002301105B9F07B
:102F00000330110521F561E08C850E94871B60E08C
:102F100013C060E08C850E94871B61E08E850E9453
:102F2000871B61E088890E94871B60E00DC060E01C
:102F30008C850E94871B61E08E850E94871B60E064
:102F400088890E94871B61E08A890E94871B888587
:102F50009985059709F073C00A30110508F06FC014
:102F6000F801E05CFF4F0C942B2260E08C850E94FE
:102F7000871B61E051C060E08C850E94871B61E087
:102F80008E850E94871B60E04BC060E08C850E94AC
:102F9000871B61E08E850E94871B60E088890E9404
:102FA000871B61E041C060E001C061E08C850E9448
:102FB000871B61E005C061E08C850E94871B60E093
:102FC0008E850E94871B60E009C061E08C850E94AD
:102FD000871B60E08E850E94871B61E088890E94C4
:102FE000871B61E00DC061E08C850E94871B60E05B
:102FF0008E850E94871B61E088890E94871B60E0A4
:103000008A890E94871B60E013C061E001C060E014
:103010008C850E94871B60E08E850E94871B61E083
:1030200088890E94871B60E08A890E94871B61E073
:103030008C89DF91CF911F910F910C94871BDF91A9
:10304000CF911F910F9108954F925F926F927F924F
:103050008F929F92AF92BF92CF92DF92EF92FF92A8
:103060000F931F93CF93DF93EC01CB0177FF04C045
:1030700088279927861B970B6C01161617062CF4C8
:1030800081E090E09983888304C0672B11F0198256
:10309000188204E010E08AE0E82EF12CC114D1047B
:1030A00009F44AC00E94181A8E889F88A88CB98C8F
:1030B0002B013C01481859086A087B088A809B80CC
:1030C000AC80BD80481459046A047B0458F36E8BAD
:1030D0007F8B888F998F288139818A859B852130C4
:1030E000310559F401969B878A872E813F8182178B
:1030F000930771F41B861A860BC0892B21F48E81ED
:103100009F819B878A878A859B8501979B878A8772
:1031100081E0C81AD108288539858A859B852530A4
:10312000310511F4B70101C0B8010E94D621BC01DC
:10313000CE010E944317B2CFDF91CF911F910F9123
:10314000FF90EF90DF90CF90BF90AF909F908F90C7
:103150007F906F905F904F90089585E090E0089584
:10316000FC01A281B3812C919581922387818223D6
:10317000992361F0882379F08085882321F0818567
:103180009285890F8187108612860895811103C068
:1031900081E0808708952085211108C0992311F0CE
:1031A00081E003C0882311F08FEF82870895833078
:1031B00081F028F4813099F08230A1F008958730B1
:1031C000A9F08830B9F08430D1F4809180008F7DEF
:1031D00003C0809180008F7780938000089584B52C
:1031E0008F7702C084B58F7D84BD08958091B00033
:1031F0008F7703C08091B0008F7D8093B0000895D9
:103200001F93CF93DF93EC01862F142F41E050E002
:10321000BE010E94050241E050E0BE01812FDF9116
:10322000CF911F910C940502CF93DF93EC016B8734
:103230004C832E83421709F475C0483018F42830A7
:1032400008F070C088EF840F863020F428502630B4
:1032500060F068C04E3030F02E3008F463C0443166
:1032600008F060C0243108F05DC018861986A0916E
:10327000BB05B091BC05109729F4D093BC05C09351
:10328000BB050CC01C968D919C911D97009711F069
:10329000DC01F8CF1D96DC93CE931C971D861C860F
:1032A00050E0FA01E454FF4FE491F0E0EE0FFF1F0D
:1032B000E053FF4F859194919B838A83892B09F476
:1032C00031C0FA01E855FF4FE491ED83FA01EC5665
:1032D000FF4F849181110E94D7188E8190E0FC01EC
:1032E000E855FF4FE491EF83FC01EC56FF4F8491CA
:1032F00081110E94D71860E08C810E944E1B60E013
:103300008E810E944E1B61E08C810E94871B61E0D0
:103310008E810E94871B4E816C81CE01DF91CF91FF
:103320000C940019DF91CF9108959091BB05809185
:10333000BC059093B9058093BA05E92FF82F309713
:1033400069F08185882331F0F093BA05E093B905DF
:10335000CF0108950484F585E02DF1CF1092BA05D0
:103360001092B90580E090E00895FC01818587FF07
:1033700003C091E0980F91879185191614F491502C
:10338000918708951F920F920FB60F9211242F93D9
:103390003F938F939F93AF93BF938091BE0590917E
:1033A000BF05A091C005B091C1053091BD0523E0D6
:1033B000230F2D3720F40196A11DB11D05C026E86D
:1033C000230F0296A11DB11D2093BD058093BE055C
:1033D0009093BF05A093C005B093C1058091C2052D
:1033E0009091C305A091C405B091C5050196A11D9A
:1033F000B11D8093C2059093C305A093C405B093FB
:10340000C505BF91AF919F918F913F912F910F90E3
:103410000FBE0F901F9018952FB7F8946091BE05BE
:103420007091BF058091C0059091C1052FBF08958F
:103430003FB7F8948091C2059091C305A091C4054F
:10344000B091C50526B5A89B05C02F3F19F0019680
:10345000A11DB11D3FBF6627782F892F9A2F620FBC
:10346000711D811D911D42E0660F771F881F991FF6
:103470004A95D1F70895CF92DF92EF92FF92CF93C2
:10348000DF936B017C010E94181AEB01C114D10477
:10349000E104F10489F00E94A5210E94181A6C1B16
:1034A0007D0B683E734090F381E0C81AD108E108B3
:1034B000F108C851DC4FEACFDF91CF91FF90EF9038
:1034C000DF90CF9008958230910538F0880F991FD2
:1034D000880F991F05970197F1F70895789484B59F
:1034E000826084BD84B5816084BD85B5826085BD00
:1034F00085B5816085BDEEE6F0E0808181608083E6
:10350000E1E8F0E0108280818260808380818160C8
:103510008083E0E8F0E0808181608083E1EBF0E08F
:10352000808184608083E0EBF0E080818160808333
:10353000EAE7F0E08081846080838081826080831C
:103540008081816080838081806880831092C10047
:1035500008958E3008F08E50877020910E0190E40F
:10356000299F90011124822B80937C0080917A0006
:10357000806480937A0080917A0086FDFCCF8091F0
:1035800078002091790090E0922B08951F93CF93BB
:10359000DF93182FEB0161E00E944E1B209711F47E
:1035A00060E004C0CF3FD10539F461E0812FDF91A5
:1035B000CF911F910C94871BE12FF0E0EC56FF4F49
:1035C000E491E330F9F048F4E130B9F0E230A1F5EC
:1035D00084B5806284BDC8BD34C0E730E9F0E8300E
:1035E00019F1E43049F58091800080628093800079
:1035F000D0938B00C0938A0024C084B5806884BDBA
:10360000C7BD1FC080918000806880938000D093E8
:103610008900C093880015C08091B00080688093B5
:10362000B000C093B3000DC08091B0008062809361
:10363000B000C093B40005C0C038D1050CF0B5CFC0
:10364000AFCFDF91CF911F910895833081F028F49F
:10365000813099F08230A1F008958730A9F0883048
:10366000B9F08430D1F4809180008F7D03C08091C7
:1036700080008F7780938000089584B58F7702C093
:1036800084B58F7D84BD08958091B0008F7703C08D
:103690008091B0008F7D8093B0000895CF93DF9329
:1036A00090E0FC01E855FF4F2491FC01E454FF4FEA
:1036B0008491882349F190E0880F991FFC01EC5117
:1036C000FF4FA591B49186529F4FFC01C591D491B3
:1036D0009FB7611108C0F8948C91209582238C9338
:1036E000888182230AC0623051F4F8948C91322F81
:1036F000309583238C938881822B888304C0F8942F
:103700008C91822B8C939FBFDF91CF9108950F9363
:103710001F93CF93DF931F92CDB7DEB7282F30E0F2
:10372000F901EC56FF4F8491F901E855FF4F1491D0
:10373000F901E454FF4F04910023C9F0882321F0DC
:1037400069830E94251B6981E02FF0E0EE0FFF1FC7
:10375000E652FF4FA591B4919FB7F8948C916111F7
:1037600003C01095812301C0812B8C939FBF0F90C4
:10377000DF91CF911F910F910895FC01818D228DD2
:1037800090E0805C9F4F821B91098F739927089569
:10379000FC01918D828D981731F0828DE80FF11D1B
:1037A000858D90E008958FEF9FEF0895FC01918D36
:1037B000828D981761F0828DDF01A80FB11D5D9693
:1037C0008C91928D9F5F9F73928F90E008958FEF01
:1037D0009FEF08958AE59DE1892B49F080E090E014
:1037E000892B29F00E945A1D81110C940000089524
:1037F000FC01848DDF01A80FB11DA35ABF4F2C918E
:10380000848D90E001968F739927848FA689B7895C
:103810002C93A089B1898C9180648C93938D848D35
:10382000981306C00288F389E02D80818F7D808304
:103830000895CF93DF93EC01888D8823C9F0EA893E
:10384000FB89808185FD05C0A889B9898C9186FD99
:103850000FC00FB607FCF5CF808185FFF2CFA88996
:10386000B9898C9185FFEDCFCE010E94F81BE7CF7F
:10387000DF91CF910895CF92DF92FF920F931F9324
:10388000CF93DF931F92CDB7DEB76C0181E0D601F5
:1038900058968C9358975B969C915B975C968C910D
:1038A0005C97981307C05096ED91FC9151978081D9
:1038B00085FD2EC0F601038D10E00F5F1F4F0F73C3
:1038C0001127F02EF601848DF81211C00FB607FCF7
:1038D000F9CFD6015096ED91FC915197808185FFEB
:1038E000F1CFC60169830E94F81B6981EBCF838DFC
:1038F000E80FF11DE35AFF4F6083D6015B960C93EE
:103900005B975296ED91FC915397808180620CC039
:10391000D6015696ED91FC91579760835096ED91A4
:10392000FC91519780818064808381E090E00F90CA
:10393000DF91CF911F910F91FF90DF90CF9008956D
:10394000BF92CF92DF92EF92FF92CF93DF93EC0181
:103950006A017B01B22EE889F98982E080834115F2
:1039600081EE580761057105A1F060E079E08DE313
:1039700090E0A70196010E94EA21215031094109F6
:1039800051095695479537952795211580E13807B8
:1039900098F0E889F989108260E874E88EE190E097
:1039A000A70196010E94EA212150310941095109DC
:1039B0005695479537952795EC85FD853083EE859F
:1039C000FF852083188EEC89FD89B082EA89FB8906
:1039D000808180618083EA89FB898081886080831F
:1039E000EA89FB89808180688083EA89FB898081FC
:1039F0008F7D8083DF91CF91FF90EF90DF90CF900C
:103A0000BF9008951F920F920FB60F9211242F931B
:103A10008F939F93EF93FF93E091D605F091D70595
:103A20008081E091DC05F091DD0582FD12C090817E
:103A30008091DF058F5F8F732091E005821751F031
:103A4000E091DF05F0E0EA53FA4F958F8093DF05B0
:103A500001C08081FF91EF919F918F912F910F90E5
:103A60000FBE0F901F9018951F920F920FB60F92D6
:103A700011242F933F934F935F936F937F938F9373
:103A80009F93AF93BF93EF93FF9386EC95E00E94D3
:103A9000F81BFF91EF91BF91AF919F918F917F9113
:103AA0006F915F914F913F912F910F900FBE0F90AB
:103AB0001F90189586EC95E00E94BD1B21E0892B94
:103AC00009F420E0822F08951092C9051092C805CC
:103AD00088EE93E0A0E0B0E08093CA059093CB0518
:103AE000A093CC05B093CD0585E293E09093C705F4
:103AF0008093C60585EC90E09093D3058093D20522
:103B000084EC90E09093D5058093D40580EC90E010
:103B10009093D7058093D60581EC90E09093D905DA
:103B20008093D80582EC90E09093DB058093DA05D2
:103B300086EC90E09093DD058093DC051092DF0524
:103B40001092E0051092E1051092E2050895CF92DF
:103B5000DF92EF92FF920F931F93CF93DF937C013D
:103B60006A01EB0100E010E00C151D0571F0699190
:103B7000D701ED91FC910190F081E02DC7010995ED
:103B8000892B19F00F5F1F4FEFCFC801DF91CF9145
:103B90001F910F91FF90EF90DF90CF9008953F928B
:103BA0004F925F926F927F928F929F92AF92BF924D
:103BB000CF92DF92EF92FF920F931F93CF93DF93F9
:103BC00000D000D0CDB7DEB78B0129013A0190912A
:103BD0000F01981721F09F3F09F0DAC104C0EEEE03
:103BE000F0E0349081C080930F01EEEEF0E0E491BC
:103BF000EF3F09F4CDC1E13031F1E23009F44BC0BF
:103C0000E11171C014BC15BC94B5926094BD95B51A
:103C1000916095BD282F30E0F901E454FF4FE49105
:103C2000F0E0EE0FFF1FE652FF4F45915491509385
:103C3000730640937206F901E855FF4F24912093D3
:103C40007106312C53C01092800010928100909127
:103C50008100986090938100909181009160909391
:103C60008100282F30E0F901E454FF4FE491F0E0A7
:103C7000EE0FFF1FE652FF4F4591549150936C0693
:103C800040936B06F901E855FF4F249120936A0693
:103C9000332433942BC01092B0001092B100909155
:103CA000B00092609093B0009091B10091609093B9
:103CB000B100282F30E0F901E454FF4FE491F0E027
:103CC000EE0FFF1FE652FF4F45915491509365064A
:103CD00040936406F901E855FF4F24912093630651
:103CE00052E0352E03C03E2E37FC52C161E00E94E7
:103CF0004E1B4801A12CB12C832D8D7F09F0C7C02C
:103D000060E072E18AE790E0A50194010E940C2234
:103D100029833A834B835C8369017A0181E0C81A65
:103D2000D108E108F1089FEFC916D104E104F104BC
:103D300009F008F49AC060E472E48FE090E0A50115
:103D400094010E940C2269017A01E1E0CE1AD108A7
:103D5000E108F108F2E03F1219C08FEFC816D10454
:103D6000E104F10409F008F48AC060E970ED83E031
:103D700090E0A50194010E940C2269017A0191E072
:103D8000C91AD108E108F10883E001C082E0EFEF31
:103D9000CE16D104E104F10409F008F467C068E428
:103DA00078EE81E090E0A50194010E940C22690167
:103DB0007A01F1E0CF1AD108E108F1083320E1F0EF
:103DC00082E038121BC09FEFC916D104E104F10450
:103DD00009F008F4DBC064E274EF80E090E0A50134
:103DE00094010E940C2269017A01E1E0CE1AD10807
:103DF000E108F10885E003C083E001C084E0FFEF43
:103E0000CF16D104E104F10489F180F162E17AE78F
:103E100080E090E0A50194010E940C2269017A01E2
:103E200081E0C81AD108E108F108311002C084E02D
:103E300001C086E09FEFC916D104E104F104B1F09E
:103E4000A8F0C980DA80EB80FC809AE0F594E794D2
:103E5000D794C7949A95D1F7E1E0CE1AD108E1083A
:103E6000F108332031F087E00BC081E0332011F0FE
:103E700007C085E095B5987F982B95BD38C082E046
:103E80009091B100987F982B9093B10030C060E082
:103E900072E18AE790E0A50194010E940C22690179
:103EA0007A01F1E0CF1AD108E108F108C114D10478
:103EB00081E0E806F10488F068E478EE81E090E0C3
:103EC000A50194010E940C2269017A0191E0C91AAE
:103ED000D108E108F10893E001C091E0E1E03E1271
:103EE00006C080918100887F892B809381004114D6
:103EF00051046104710471F0D801AA0FBB1FA30122
:103F000092010E94312228EE33E040E050E00E940E
:103F1000EA2103C02FEF3FEFA901F1E03F16A1F026
:103F200082E0381619F1311033C0C7BC20937406F3
:103F300030937506409376065093770680916E0015
:103F4000826080936E0024C0D0928900C092880065
:103F500020936D0630936E0640936F065093700663
:103F600080916F00826080936F0012C0C092B30096
:103F7000209366063093670640936806509369065F
:103F80008091700082608093700002C084E078CFDE
:103F90000F900F900F900F90DF91CF911F910F9185
:103FA000FF90EF90DF90CF90BF90AF909F908F9059
:103FB0007F906F905F904F903F900895813039F0DF
:103FC00018F0823051F0089510926E00089580919B
:103FD0006F008D7F80936F000895809170008D7FBA
:103FE0008093700081E08093B0008091B100887F61
:103FF00084608093B1001092B3000895CF93C82FCE
:1040000080910F018C1307C0EEEEF0E084919FEFDA
:1040100090930F0101C08FEF0E94DE1F60E08C2F94
:10402000CF910C94871B1F920F920FB60F92112401
:104030002F933F934F935F936F937F938F939F93B0
:10404000AF93BF93EF93FF938091660690916706BD
:10405000A0916806B0916906892B8A2B8B2B51F1B0
:1040600090916306E0916406F0916506808189274E
:1040700080838091660690916706A0916806B09152
:104080006906181619061A061B06C4F480916606FE
:1040900090916706A0916806B09169060197A10901
:1040A000B1098093660690936706A0936806B09363
:1040B000690604C080910F010E94FE1FFF91EF91DD
:1040C000BF91AF919F918F917F916F915F914F9130
:1040D0003F912F910F900FBE0F901F9018954F9208
:1040E0005F926F927F92AF92BF92CF92DF92EF92E8
:1040F000FF920F931F93CF93DF93CDB7DEB72901C4
:104100003A01621B730B840B950B29893A894B8901
:104110005C892A193B094C095D09298B3A8B4B8B29
:104120005C8B9B01AC0169897A898B899C890E948F
:10413000A621E418F50806091709A80197010E94AD
:104140000C222A0D3B1D4C1D5D1DCA01B901DF91DA
:10415000CF911F910F91FF90EF90DF90CF90BF9084
:10416000AF907F906F905F904F900895FC01808199
:1041700091810C94E322CF93DF93EC0188819981A4
:10418000009711F00E94E322198218821D821C827E
:104190001B821A82DF91CF9108950F931F93CF93C3
:1041A000DF93EC018B016F5F7F4F888199810E94C3
:1041B0007223009731F0998388831B830A8381E0FF
:1041C00001C080E0DF91CF911F910F910895CF93AF
:1041D000DF93EC0188819981892B29F08A819B8169
:1041E0008617970760F4CE010E94CD20882341F006
:1041F0008C819D81892B19F4E881F981108281E0FD
:10420000DF91CF910895EF92FF920F931F93CF9379
:10421000DF93EC017B018A01BA010E94E720811142
:1042200004C0CE010E94BB2007C01D830C83B701D0
:10423000888199810E944524CE01DF91CF911F9101
:104240000F91FF90EF900895CF93DF93EC016115EC
:10425000710561F0FB0101900020E9F7AF014150C9
:104260005109461B570B0E94032102C00E94BB202C
:10427000CE01DF91CF9108950F931F93CF93DF93DA
:10428000CDB7DEB7A2970FB6F894DEBF0FBECDBF95
:104290008C01CB01BA01F8011182108213821282C3
:1042A0001582148230E0AE014F5F5F4F0E94802480
:1042B000BE016F5F7F4FC8010E942421A2960FB6F6
:1042C000F894DEBF0FBECDBFDF91CF911F910F914C
:1042D00008950F931F93CF93DF93EB014115510581
:1042E000E9F02097D9F0FC01648175812617370722
:1042F000A0F4621B730B8A0101501109601771074A
:1043000008F48B01FC0160817181620F731FA801A9
:10431000CE010E944C24C00FD11F1882DF91CF9193
:104320001F910F91089508950E946E1A0E94932183
:104330000E949505CAEEDBE10E94240B2097E1F371
:104340000E94EA1BF9CF0C944B220895DB018F9356
:104350009F930E943122BF91AF91A29F800D911D2A
:10436000A39F900DB29F900D11240895991B79E0A1
:1043700004C0991F961708F0961B881F7A95C9F7F5
:1043800080950895AA1BBB1B51E107C0AA1FBB1F44
:10439000A617B70710F0A61BB70B881F991F5A95D1
:1043A000A9F780959095BC01CD01089597FB072E44
:1043B00016F4009407D077FD09D00E94C22107FCB3
:1043C00005D03EF4909581959F4F08957095619525
:1043D0007F4F0895A1E21A2EAA1BBB1BFD010DC041
:1043E000AA1FBB1FEE1FFF1FA217B307E407F507A5
:1043F00020F0A21BB30BE40BF50B661F771F881F81
:10440000991F1A9469F760957095809590959B0116
:10441000AC01BD01CF010895052E97FB1EF4009459
:104420000E94232257FD07D00E94EA2107FC03D0F7
:104430004EF40C94232250954095309521953F4F92
:104440004F4F5F4F089590958095709561957F4F80
:104450008F4F9F4F0895EE0FFF1F0590F491E02DB1
:1044600009940E943C22A59F900DB49F900DA49F9B
:10447000800D911D11240895A29FB001B39FC0012A
:10448000A39F700D811D1124911DB29F700D811D80
:104490001124911D0895CF93DF938230910510F47C
:1044A00082E090E0E0917A06F0917B0620E030E037
:1044B000A0E0B0E0309739F14081518148175907A9
:1044C000B8F04817590771F482819381109729F049
:1044D00013969C938E9312972CC090937B06809397
:1044E0007A0627C02115310531F04217530718F01D
:1044F000A901DB0101C0EF019A01BD01DF010280CA
:10450000F381E02DD7CF21153105F9F0281B390BA8
:104510002430310580F48A819B816115710521F079
:10452000FB019383828304C090937B0680937A0679
:10453000FE01329644C0FE01E20FF31F8193919376
:1045400022503109398328833AC02091780630916E
:104550007906232B41F4209102013091030130931D
:1045600079062093780620910001309101012115F0
:10457000310541F42DB73EB740910401509105013A
:10458000241B350BE0917806F0917906E217F307CA
:10459000A0F42E1B3F0B2817390778F0AC014E5FB3
:1045A0005F4F2417350748F04E0F5F1F5093790671
:1045B000409378068193919302C0E0E0F0E0CF0150
:1045C000DF91CF910895CF93DF93009709F487C0CF
:1045D000FC01329713821282C0917A06D0917B0639
:1045E000209781F420813181280F391F809178062E
:1045F000909179068217930779F5F0937906E09305
:1046000078066DC0DE0120E030E0AE17BF0750F441
:1046100012964D915C9113979D014115510509F139
:10462000DA01F3CFB383A28340815181840F951FB8
:104630008A179B0771F48D919C911197840F951F98
:1046400002969183808312968D919C911397938308
:1046500082832115310529F4F0937B06E0937A06D5
:104660003EC0D9011396FC93EE9312974D915D9144
:10467000A40FB51FEA17FB0779F480819181840F9D
:10468000951F0296D90111969C938E9382819381F6
:1046900013969C938E931297E0E0F0E08A819B81C1
:1046A000009719F0FE01EC01F9CFCE0102962881A6
:1046B0003981820F931F209178063091790628174F
:1046C000390769F4309729F410927B0610927A0624
:1046D00002C013821282D0937906C0937806DF91CC
:1046E000CF910895A0E0B0E0E8E7F3E20C94D02485
:1046F000EC01CB01209719F40E944B22B8C0FE01B7
:10470000E60FF71F9E0122503109E217F30708F464
:10471000ACC0D9010D911C91119706171707B8F07D
:104720000530110508F49FC0A801445051094617EF
:10473000570708F498C002501109061B170B019384
:1047400011936D937C93CF010E94E3228CC05B0197
:10475000A01AB10A4E01800E911EA0917A06B09166
:104760007B06612C712C60E070E0109709F449C061
:10477000A815B905C9F5ED90FC901197670142E0C5
:10478000C40ED11CCA14DB0478F147018A189B08B7
:10479000640142E0C40ED11C1296BC90129713968D
:1047A000AC91B5E0CB16D10440F0B282A3839182E4
:1047B0008082D9018D939C9309C00E5F1F4F0E0D0F
:1047C0001F1DF90111830083EB2DFA2F611571056F
:1047D00031F0DB011396FC93EE93129744C0F093F3
:1047E0007B06E0937A063FC06D917C911197661627
:1047F000770608F43B01BD0112960D90BC91A02DE7
:10480000B4CF609178067091790668157905E9F45E
:1048100068167906D0F440910001509101014115CC
:10482000510541F44DB75EB76091040170910501E7
:10483000461B570BE417F507C0F4F0937906E09395
:104840007806F901918380830EC00E944B227C017F
:10485000009759F0A801BE010E943C24CE010E949D
:10486000E322C70104C0CE0102C080E090E0CDB7D2
:10487000DEB7EEE00C94EC24FB01DC0102C00190F9
:104880000D9241505040D8F70895FB01DC01019092
:104890000D920020E1F70895FB01DC0141505040EA
:1048A00048F001900D920020C9F701C01D924150BF
:1048B0005040E0F70895FC0181E090E00190061679
:1048C00009F4CF010020D1F701970895FB01519120
:1048D0005523A9F0BF01DC014D9145174111E1F7C6
:1048E00059F4CD010190002049F04D91401541113E
:1048F000C9F3FB014111EFCF81E090E001970895EA
:104900002532310520F4223010F00C948B24FA016A
:104910001082CA010895BB272A3051F4992342F42A
:10492000BDE290958095709561957F4F8F4F9F4F19
:104930000C949B24BB27FA01A62F621771058105F1
:104940009105330B30FB66F0AA27660F771F881F8F
:10495000991FAA1FA21710F0A21B63953850A9F740
:10496000A05DAA3308F0A95DA19336F7B111B19308
:104970001082CA010C94BC24DC01FC01672F7191E8
:104980007723E1F7329704C07C916D937083629135
:10499000AE17BF07C8F308952F923F924F925F92D0
:1049A0006F927F928F929F92AF92BF92CF92DF923F
:1049B000EF92FF920F931F93CF93DF93CDB7DEB7A4
:1049C000CA1BDB0B0FB6F894DEBF0FBECDBF099438
:1049D0002A88398848885F846E847D848C849B848F
:1049E000AA84B984C884DF80EE80FD800C811B819D
:1049F000AA81B981CE0FD11D0FB6F894DEBF0FBECC
:0A4A0000CDBFED010895F894FFCF3B
:104A0A0000007C0680000100000021FF130001FF66
:104A1A004D617820736572766F7320617474616377
:104A2A0068656400556E6B6E6F776E2070696E20D4
:104A3A006D6F646500463A5C4C6F67696369656CC3
:104A4A00735C50726F6772616D6D6174696F6E5CD1
:104A5A0061726475696E6F5C706572736F5C332E18
:104A6A0053637261746368322E305C733261696FAA
:104A7A002D4669726D617461506C75735C73326135
:104A8A00696F2D4669726D617461506C75732E6918
:104A9A006E6F004932433A20546F6F206D616E7910
:104AAA00206279746573207265636569766564004E
:104ABA004932433A20546F6F2066657720627974D1
:104ACA0065732072656365697665640031302D62AD
:104ADA0069742061646472657373696E67206E6FAE
:104AEA007420737570706F7274656400746F6F20D0
:104AFA006D616E7920717565726965730050494EF2
:104B0A00475F434F4E464947204572726F723A20BB
:104B1A004578636565646564206E756D62657220AB
:104B2A006F6620737570706F727465642070696E39
:104B3A006720646576696365730053544550504530
:104B4A005220434F4E464947204572726F723A20AF
:104B5A0057726F6E67204E756D626572206F6620A0
:104B6A00617267756D656E74730053544550504594
:104B7A0052204F504552415445204572726F723A45
:104B8A00204D4F544F52204E4F5420434F4E4649CA
:104B9A0047555245440053544550504552204649C2
:104BAA00524D574152452056455253494F4E204582
:104BBA0072726F723A204E4F204D4F544F5253200B
:104BCA00434F4E4649475552454400535445505069
:104BDA00455220434F4E464947204572726F723AFA
:104BEA0020554E4B4E4F574E205354455050455228
:104BFA0020434F4D4D414E440061726763203D0092
:104C0A006D046304590400000000320F050FDA0E28
:104C1A00E20EF50E040F2E6370700000000000B063
:104C2A0018000000003B1CA71DBD1BD61BC81B1982
:024C3A001C005C
:00000001FF
