:100000000C9498010C94C0010C94C0010C94C00194
:100010000C94C0010C94C0010C94C0010C94C0015C
:100020000C94C0010C94C0010C9496190C946218A5
:100030000C94C0010C94C0010C94C0010C94C0013C
:100040000C94C0010C94E0090C94C0010C94C00104
:100050000C94C0010C94C0010C94C0010C942712A4
:100060000C94C0010C94C0010C94C0010C94C0010C
:100070000C94C0010C94C0010C94C0010C94C001FC
:100080000C94C0010C94C0010C94C0010C94C001EC
:100090000C94A40D0C94C0010C94C0010C94C001EC
:1000A0000C94C0010C94C0010C94C001FB08CE0953
:1000B0003C08CE09AA08CE091B08C507CE09CE09FF
:1000C000CE09CE091309E306CE09AF07CE09000811
:1000D0007F138413891393139D13E713E713E71317
:1000E000A713B113BB13C513D213E713DA13081404
:1000F0000B14FA13FE1304142C142C142C140F14C8
:10010000131417141D1421142C14271407060504A6
:100110000100080A0B0C0D090000000200090F0085
:1001200000030401000C00000000000000000000BB
:100130000000000000000408020110408040102070
:10014000408040800802040180402010020110809D
:1001500010204040040404040403040502020202C7
:100160000403020202020606060606060404020250
:100170000204000000002300260029002C002F00AC
:1001800000000000250028002B002E003100000098
:100190000000240027002A002D003000080B000278
:1001A000020201000904000001020200000524000F
:1001B00010010524010101042402060524060001A2
:1001C0000705810310004009040100020A00000035
:1001D000070502024000000705830240000000C13D
:1001E0008081C112010002020000404123368000DC
:1001F000010102000112010002000000404123360B
:100200008000010102000141726475696E6F204C2B
:100210004C430041726475696E6F204C656F6E616E
:1002200072646F0004030904000000000000000075
:100230002A2B280000000000000000000000000041
:1002400000000000000000002C9EB4A0A1A2A43475
:10025000A6A7A5AE362D3738271E1F20212223241E
:100260002526B333B62EB7B89F8485868788898ABA
:100270008B8C8D8E8F909192939495969798999A56
:100280009B9C9D2F3130A3AD350405060708090A54
:100290000B0C0D0E0F101112131415161718191A36
:1002A0001B1C1DAFB1B0B500090402000103000022
:1002B00000092101010001226500070584034000B7
:1002C0000105010902A1010901A100850105091922
:1002D000012903150025019503750181029501751A
:1002E00005810305010930093109381581257F751C
:1002F0000895038106C0C005010906A10185020514
:100300000719E029E7150025017501950881029577
:1003100001750881039506750815002565050719FF
:100320000029658100C0AF05C20C23120D16881B81
:1003300011241FBECFEFDAE0DEBFCDBF11E0A0E099
:10034000B1E0EEEDFAE302C005900D92A83FB107CF
:10035000D9F724E0A8EFB1E001C01D92AB35B20798
:10036000E1F713E0C0E3D3E004C02297FE010E944E
:10037000F41BC632D107C9F70E942B160C946D1DD1
:100380000C940000843028F4E82FF0E0EF53FD4F88
:10039000608308951F93CF93DF93162F843008F066
:1003A0006CC0982F990F990F990F985F9F3108F0A3
:1003B0009EE1D82FDD0FDD0FDD0F8D2FC0E041E076
:1003C0008917C8F4E82FF0E0DF01A156BD4F2C914A
:1003D000223070F4C42BEE0FFF1FE15AFD4F21E0D5
:1003E00030E0542F512311F420E030E0318320839A
:1003F000440F8F5FE5CFC0FF05C0612F61708D2F67
:100400000E946614C1FF06C0612F627081E08D0FEB
:100410000E946614C2FF06C0612F647082E08D0FD7
:100420000E946614C3FF06C0612F687083E08D0FC1
:100430000E946614C4FF06C0612F607184E08D0FB6
:100440000E946614C5FF06C0612F607285E08D0FA3
:100450000E946614C6FF06C0612F607486E08D0F8F
:100460000E946614C7FF09C0612F607887E08D0F76
:10047000DF91CF911F910C946614DF91CF911F9162
:1004800008958C30C0F44091C5025091C60221E01D
:1004900030E002C0220F331F8A95E2F7672B29F460
:1004A000209530952423352302C0242B352B3093FF
:1004B000C6022093C5020895EF92FF920F931F93F7
:1004C000CF93DF93EB018E3170F5082F10E0F80128
:1004D000E156FD4F9081933081F0943021F5780101
:1004E000EE0CFF1C8C3038F4C701800F911F885030
:1004F0009E4F0E947D0BF70112C0833051F09BEF9D
:10050000980F923030F097EF980F933010F08D30B5
:1005100019F4BE010E945913F801EE0FFF1FE15AB2
:10052000FD4FD183C083DF91CF911F910F91FF9039
:10053000EF9008951F93CF93DF93162FC82FD0E02D
:10054000FE01E556FD4F90811923C354DD4F411143
:1005500003C09881911741F0412F50E0682F8DEA38
:1005600093E00E9439101883DF91CF911F91089575
:10057000CF93DF938091C102882309F448C0D091C2
:100580009B02D0FF1DC180E00E949C14892B09F4BE
:1005900017C1C1E0D1FF06C081E00E949C14892BE5
:1005A00009F010C1D2FF06C082E00E949C14892B82
:1005B00009F00AC1D3FF06C083E00E949C14892B76
:1005C00009F004C1D4FF06C084E00E949C14892B6A
:1005D00009F0FEC0D5FF06C085E00E949C14892B5F
:1005E00009F0F8C0D6FF06C086E00E949C14892B53
:1005F00009F0F2C0D7FF06C087E00E949C14892B47
:1006000009F0ECC040E06C2F80E00E949A028091DB
:10061000C202882309F448C0D0919C02D0FFE0C0F8
:1006200088E00E949C14892B09F4DAC0C1E0D1FF54
:1006300006C089E00E949C14892B09F0D3C0D2FF28
:1006400006C08AE00E949C14892B09F0CDC0D3FF1C
:1006500006C08BE00E949C14892B09F0C7C0D4FF10
:1006600006C08CE00E949C14892B09F0C1C0D5FF04
:1006700006C08DE00E949C14892B09F0BBC0D6FFF8
:1006800006C08EE00E949C14892B09F0B5C0D7FFEC
:1006900006C08FE00E949C14892B09F0AFC040E097
:1006A0006C2F81E00E949A028091C302882309F492
:1006B00048C0D0919D02D0FFA3C080E10E949C144D
:1006C000892B09F49DC0C1E0D1FF06C081E10E94E1
:1006D0009C14892B09F096C0D2FF06C082E10E94CB
:1006E0009C14892B09F090C0D3FF06C083E10E94BF
:1006F0009C14892B09F08AC0D4FF06C084E10E94B3
:100700009C14892B09F084C0D5FF06C085E10E94A6
:100710009C14892B09F07EC0D6FF06C086E10E949A
:100720009C14892B09F078C0D7FF06C087E10E948E
:100730009C14892B09F072C040E06C2F82E00E946B
:100740009A028091C402882309F476C0D0919E0257
:10075000D0FF66C088E10E949C14892B09F460C018
:10076000C1E0D1FF06C089E10E949C14892B09F0E9
:1007700059C0D2FF06C08AE10E949C14892B09F05F
:1007800053C0D3FF06C08BE10E949C14892B09F053
:100790004DC0D4FF06C08CE10E949C14892B09F047
:1007A00047C0D5FF06C08DE10E949C14892B09F03B
:1007B00041C040E06C2F83E0DF91CF910C949A020E
:1007C000C0E0E8CEC260EECEC460F4CEC860FACE1F
:1007D000C06100CFC06206CFC0640CCFC06812CF2A
:1007E000C0E025CFC2602BCFC46031CFC86037CF07
:1007F000C0613DCFC06243CFC06449CFC0684FCF16
:10080000C0E062CFC26068CFC4606ECFC86074CFF2
:10081000C0617ACFC06280CFC06486CFC0688CCF01
:10082000C0E09FCFC260A5CFC460ABCFC860B1CFDE
:10083000C061B7CFC062BDCFDF91CF910895109254
:100840001E028FEF80930A0108958F929F92AF92BC
:10085000BF92CF92DF92EF92FF920F931F93CF93AD
:10086000DF93182FEB01E82EF12CC70181569D4F25
:100870004C01FC0180815701AA0CBB1C863051F44D
:1008800080911E02882331F06630710509F4D2C0D0
:100890000E941F041C3070F4C430D10559F065016A
:1008A000CE0CDF1CC60188509E4F6C010E94E20BEB
:1008B0008111BCC00EEE010F0C3058F461E070E005
:1008C000C230D10511F060E070E0802F0E9441023B
:1008D00002C01E31D0F4E12FE695E695E695812F12
:1008E0008770F0E0E556FD4F21E030E0082E01C0B2
:1008F000220F0A94EAF7209721F48081822B8083CB
:1009000004C02095808128232083F501E15AFD4F02
:1009100011821082C230D10579F02CF42097C9F0F1
:10092000219729F171C0C430D10509F445C064F1A3
:10093000269709F461C068C00C3008F07FC060E001
:10094000812F0E942D1460E0812F0E94661482E0A6
:1009500058C01E3108F072C060E0812F0E942D1433
:1009600060E0812F0E946614F401108267C01E317E
:1009700008F064C060E0812F0E94661461E0812F5E
:100980000E942D1481E03DC0133059F08BEF810F90
:10099000823038F087EF810F833018F01D3009F076
:1009A0004DC061E0812F0E942D1460E070E0812F26
:1009B0000E94591383E025C01C3008F03FC084E03A
:1009C000F4018083E501CE0DDF1DC850DE4FCE015E
:1009D0000E94E20B811132C0B701CE01DF91CF91AD
:1009E0001F910F91FF90EF90DF90CF90BF90AF904D
:1009F0009F908F900C94360B8EEF810F8230F0F425
:100A000086E0F40180831AC068E171E08DEA93E02A
:100A1000DF91CF911F910F91FF90EF90DF90CF90DA
:100A2000BF90AF909F908F900C94AF10C6010E9422
:100A30003C0B40CF1C3008F432CF3CCFDF91CF913C
:100A40001F910F91FF90EF90DF90CF90BF90AF90EC
:100A50009F908F900895CF93C0E08EEF8C0F8230DF
:100A600028F466E070E08C2F0E942504CF5FCE3121
:100A7000A1F781E080931E028DEE92E0CF910C945D
:100A8000880CCF93DF9380911E0281110E941F0476
:100A9000E1ECF2E0CBE9D2E0ADEBB2E011921992D9
:100AA0001D9282E0E53CF807C9F7C0E08EEE8C0F9E
:100AB0008C3018F462E070E002C061E070E08C2FCE
:100AC0000E942504CF5FCE3189F71092C6021092A2
:100AD000C502DF91CF91089523E042E069E271E021
:100AE0008DEA93E00E94730F4CE552E060EE8DEAD0
:100AF00093E00E94B3104AEC51E060E98DEA93E084
:100B00000E94B31041E452E060EC8DEA93E00E9451
:100B1000B31042EC51E060ED8DEA93E00E94B31017
:100B200045E254E064EF8DEA93E00E94B31042EC9A
:100B300056E060EF8DEA93E00E94D61041E455E064
:100B40006FEF8DEA93E00E94D01040E051EE60E03C
:100B500070E08DEA93E00E940D120C944105CF9352
:100B6000DF93C8EFD1E0CE010E949C0A239682E079
:100B7000CC31D807C1F7DF91CF910895DF92EF9282
:100B8000FF920F931F93CF93DF93F82EEB01D42E98
:100B90006F3F8FEF7807A9F06F2D8DEE92E00E94E6
:100BA000A20C6C2F8DEE92E00E94490C8DEE92E02B
:100BB0000E94BF0C80911C0290911D020E94C812DD
:100BC00002C0C0E0D0E04D2D6F2D8DEE92E00E946E
:100BD0009F0C0D2D10E08DEE92E00E94F10B081796
:100BE0001907B1F4F0921F02C093200261E2E62ED1
:100BF00062E0F62EC0E0D0E0C017D107CCF48DEE55
:100C000092E00E94F90BF70181937F012196F4CFC6
:100C10008DEE92E00E94F10B801791071CF468E3BF
:100C200071E002C060E671E08DEA93E00E94AF10CF
:100C300042E04D0D2FE132E067E78DEA93E0DF916E
:100C4000CF911F910F91FF90EF90DF900C94671060
:100C50008F929F92AF92BF92CF92DF92EF92FF92CC
:100C60000F931F93CF93DF930E94B8028DEA93E016
:100C70000E94C50F892B29F08DEA93E00E94F9109C
:100C8000F5CF0E94711260935B0270935C028093B7
:100C90005D0290935E02C0905702D0905802E0909F
:100CA0005902F0905A0240910B0150910C014A01F7
:100CB000AA2497FCA094BA2C8B019C010C191D0945
:100CC0002E093F0980169106A206B30608F04DC012
:100CD000D501C4018C0D9D1DAE1DBF1D8093570213
:100CE00090935802A0935902B0935A02CFE9D2E0F0
:100CF0001EEE1C30C0F488818230A9F42091C50218
:100D00003091C602012E02C0359527950A94E2F76C
:100D100020FF09C0812F0E942813AC01612F8DEAAA
:100D200093E00E9420101F5F21961C3011F78091E4
:100D30000A0187FD1AC0C0E08C2F90E020910A01C3
:100D4000332727FD3095281739077CF0FC01EE0F7B
:100D5000FF1FE80FF91FE15CFD4F618170E04281E8
:100D600080810E94BE05CF5FE7CFDF91CF911F91B9
:100D70000F91FF90EF90DF90CF90BF90AF909F903A
:100D80008F9008959F92AF92BF92CF92DF92EF9291
:100D9000FF920F931F93CF93DF93CDB7DEB72997C1
:100DA0000FB6F894DEBF0FBECDBF262F8A0190E0AC
:100DB000FC01E956F109E231F10508F0EFC2EA5A07
:100DC000FF4F0C94F21BDA0111968C91982F9871B9
:100DD00085FF03C067E871E054C0FA018081983054
:100DE00081F158F49111DAC2682F8DEE92E02987D3
:100DF0000E94A20C52E0F52E07C0903109F43BC0CE
:100E0000983109F468C0CAC22985F21688F4F8013D
:100E1000EF0DF11D81816081F0E88F9F6019112431
:100E20008DEE92E029870E94490CF394F394ECCF65
:100E30008DEE92E00E94BF0C86E490E00E94C81202
:100E4000ADC293816281263061F425814481B0E88E
:100E50002B9F40191124E0E89E9F6019112470E037
:100E600007C0462FF0E89F9F401911246FEF7FEFD6
:100E70000E94BE0593C220910A0127303CF063EB2B
:100E800071E08DEA93E00E94AF1088C22F5F20933B
:100E90000A01332727FD3095F901EE0FFF1FE20FFE
:100EA000F31FE15CFD4F8083D80113969C9113974B
:100EB00012968C91B0E89B9F801911248183D801F0
:100EC00015969C91159714968C91B0E89B9F80196C
:100ED0001124828363C260910A01161634F470E013
:100EE000462F552747FD50950FC08FEF80930A017D
:100EF00055C2F901EE0FFF1FE20FF31FE15CFD4F3A
:100F00008083811123C07F5F272F30E04217530772
:100F100084F770E01BC07830C0F49C012F5F3F4F16
:100F2000D901AA0FBB1FA20FB31FA15CBD4F2C910B
:100F3000FC01EE0FFF1FE80FF91FE15CFD4F20835E
:100F40008C91818312968C9182837F5F872F90E0B2
:100F50004817590704F7615060930A011FC2FA014C
:100F600020818181F0E88F9FC0011124820F911DA3
:100F7000009721F090931D0280931C0280911E0225
:100F800081110CC20E942B0509C2653008F406C20B
:100F9000DA01DC901196CC9011971296BC901297C2
:100FA0001396AC90139714969C90BBE0BD1508F473
:100FB000F5C1ED2CF12C8701000F111F0E0D1F1D27
:100FC00008501E4FC8010E94E20B882319F0C80187
:100FD0000E943C0BE0E89E9E900111242A0D311DD9
:100FE000F0E8BF9EA00111244C0D511DB701C801AE
:100FF0000E94B80A64E070E08D2D0E942504CEC1E5
:10100000623008F4CBC1DA012C9111968C91B0E8D2
:101010008B9FC0011124820F911D90930C0180932E
:101020000B010A970CF0BAC18AE090E090930C0192
:1010300080930B01B3C1623008F4B0C1FA01618141
:1010400070E02230A1F08281F0E88F9FC00111246E
:10105000682B792B233059F0DA0113968C9190E0AC
:1010600090E4899F902D88271124682B792BF80113
:1010700080810E945C0292C160EF81EF93E00E9448
:101080004A156CE681EF93E00E944A1510E060E09B
:1010900081EF93E00E944A1561E081EF93E00E94A6
:1010A0004A1561E081EF93E00E944A1561E081EF0B
:1010B00093E00E944A158EEE810F8C3058F462E066
:1010C00081EF93E00E944A156AE081EF93E00E946D
:1010D0004A150DC0133059F463E081EF93E00E948C
:1010E0004A1568E081EF93E00E944A150AC08BEF31
:1010F000810F823088F387EF810F833068F31D30D2
:1011000059F31C3050F464E081EF93E00E944A15DB
:101110006EE081EF93E00E944A158EEF810F8230DE
:1011200050F466E081EF93E00E944A1561E081EFA0
:1011300093E00E944A156FE781EF93E00E944A1501
:101140001F5F1E3109F0A3CF67EF81EF93E00E948C
:101150004A1524C1662309F421C1DA010C9160EF1C
:1011600081EF93E00E944A156EE681EF93E00E94C2
:101170004A15602F81EF93E00E944A150E3120F747
:1011800010E0F801E156FD4F608181EF93E00E948D
:101190004A15000F111FF801E15AFD4F7F016081D0
:1011A0006F7781EF93E00E944A15D7016D917C9192
:1011B000CB018078892B49F0660F672F661F770B6C
:1011C0006F7781EF93E00E944A15F801E15AFD4FD5
:1011D00060817181CB018827907C892B09F4B4CF81
:1011E000770F660B770F762F661F6F7781EF93E08F
:1011F0000E944A15A9CF60EF81EF93E00E944A1543
:101200006AE681EF93E00E944A151EEE1C3010F052
:101210006FE701C0612F81EF93E00E944A151F5FC5
:101220001C30A1F791CFFA018381C28080FBC7F8FF
:10123000D12CE12CF12CFC2CEE24DD24CC24958146
:10124000848190FB87F990E0A0E0B0E0DC01992771
:101250008827C80ED91EEA1EFB1E9185808590FB4B
:1012600087F9C80ED11CE11CF11C9781868190FB87
:1012700087F990E0A0E0B0E0BA2FA92F982F882737
:10128000C80ED91EEA1EFB1E818161E08130C1F4C7
:1012900080810E942D1460E0D8018C910E94661418
:1012A00082E090E00E94C81261E0F80180810E9413
:1012B0006614C6010E94C81260E0D8018C9113C068
:1012C000FA0180810E94661482E090E00E94C812B8
:1012D00060E0D8018C910E946614C6010E94C81279
:1012E00061E0F80180810E946614D8011B968C9100
:1012F0001B971A962C9180FB27F9822F90E0A0E093
:10130000B0E0582F442733272227F801958584859C
:1013100090FB87F990E0A0E0B0E0DC0199278827F6
:10132000280F391F4A1F5B1F9189808990FB87F91D
:10133000280F311D411D511D9785868590FB87F92A
:1013400090E0A0E0B0E0BA2FA92F982F8827280FAF
:10135000391F4A1F5B1F60E0808129873E834F83CE
:1013600058870E942D1429853E814F815885D801C8
:1013700011966C9111978C910E94C514F8012081EF
:1013800029839A838B837C836D839E012F5F3F4FDC
:1013900045E065E78DEA93E00E94671029960FB655
:1013A000F894DEBF0FBECDBFDF91CF911F910F919B
:1013B000FF90EF90DF90CF90BF90AF909F900895F7
:1013C0001F920F920FB60F9211242F933F934F93BA
:1013D0005F936F937F938F939F93AF93BF93EF939D
:1013E000FF938091C80287FF05C01092850010927C
:1013F00084001AC02091C802332727FD30958091C0
:10140000C70290E0281739077CF48091C802992719
:1014100087FD9095FC01EE0FFF1FE80FF91FE753C2
:10142000FD4F808186FD15C08091C8028F5F80933B
:10143000C8022091C802332727FD30958091C7024A
:1014400090E028173907BCF48091C8028C305CF119
:1014500012C08091C802992787FD9095FC01EE0F7C
:10146000FF1FE80FF91FE753FD4F808160E08F7386
:101470000E946614D9CF80918400909185000496D3
:1014800080349C4918F480E49CE905C08091840074
:1014900090918500049690938900809388008FEF47
:1014A0008093C80238C020918400309185008091DB
:1014B000C802992787FD9095FC01EE0FFF1FE80FEA
:1014C000F91FE753FD4F81819281820F931F909303
:1014D0008900809388008091C802992787FD9095A4
:1014E000FC01EE0FFF1FE80FF91FE753FD4F80814E
:1014F00086FF11C08091C802992787FD9095FC0155
:10150000EE0FFF1FE80FF91FE753FD4F808161E0E9
:101510008F730E946614FF91EF91BF91AF919F91DD
:101520008F917F916F915F914F913F912F910F908C
:101530000FBE0F901F9018952091C7022C30A0F479
:1015400031E0320F3093C702FC012083822F90E0FC
:10155000FC01EE0FFF1FE80FF91FE753FD4F88EB6B
:101560009BE09283818308952FEFFC0120830895EF
:10157000DF92EF92FF920F931F93CF93DF93EC01D3
:10158000D62E7A01890188818C3008F066C061E02E
:101590008D2D0E942D148881A82FB0E0FD01EE0F43
:1015A000FF1FEA0FFB1FE753FD4F2D2D2F73908177
:1015B000907C922B908360E272E06E197F0977FF36
:1015C00002C06D5F7F4F75956795759567956983C7
:1015D00040E659E0401B510B57FF02C04D5F5F4F83
:1015E00055954795559547954A836CE00E94A51BF4
:1015F0009CE0899FB001112420E030E0A901460F52
:10160000571FFA01EE0FFF1FE40FF51FE753FD4FC1
:10161000908196FD16C02F5F3F4F2C30310571F73A
:1016200081110FC01092800082E08093810010929F
:10163000850010928400B19A80916F00826080933F
:101640006F00888190E0FC01EE0FFF1FE80FF91F8B
:10165000E753FD4F8081806480838881DF91CF9143
:101660001F910F91FF90EF90DF90089520E639E0F1
:1016700040E252E00C94B80AFC01808190E0FC0149
:10168000EE0FFF1FE80FF91FE753FD4F80818F7B9F
:1016900080830895FC0180818C3070F5918128E869
:1016A00030E0291B310997FD3395220F331F220F9C
:1016B000331F621773077CF0928128E532E0291B03
:1016C000310997FD3395220F331F220F331F621705
:1016D00073070CF49B0122503109220F331F4FB7BF
:1016E000F89490E0FC01EE0FFF1FE80FF91FE7539D
:1016F000FD4F328321834FBF08954F925F926F92C7
:101700007F92AF92BF92CF92DF92EF92FF920F93B0
:101710001F93CF93DF93EC01603282E078070CF0E7
:1017200040C077FD06C0653B71052CF064EB70E0AE
:1017300002C060E070E0898128E830E0281B3109B0
:1017400087FD3395220F331F220F331F5901CC24FD
:10175000B7FCC094DC2C882777FD8095982F2A81D0
:1017600048E552E0421B510927FD5395440F551F90
:10177000440F551F2A01662457FC6094762C7F92F3
:101780006F925F924F9214EBE12EF12C00E010E08B
:1017900020E030E0A9010E940A1A0F900F900F90EC
:1017A0000F90CE01DF91CF911F910F91FF90EF909D
:1017B000DF90CF90BF90AF907F906F905F904F90F1
:1017C0000C944A0BFC01808190E0FC01EE0FFF1F9E
:1017D000E80FF91FE753FD4F808186FB882780F9CA
:1017E000089580911D0390E020911E03821B9109B2
:1017F000089520911E0380911D03281750F4E22FB5
:10180000F0E0E15EFC4F808190E02F5F20931E03AB
:1018100008958FEF9FEF0895E0911E0380911D03BF
:10182000E81730F4F0E0E15EFC4F808190E008952D
:101830008FEF9FEF08950895CF92DF92EF92FF927E
:101840000F931F93CF93DF937C01CB018A012091EB
:10185000F902222389F0EB016B01C40ED51ECC15D1
:10186000DD0569F06991D701ED91FC910190F0815E
:10187000E02DC7010995F3CF642F0E947B0DC801AD
:10188000DF91CF911F910F91FF90EF90DF90CF905C
:101890000895CF93DF931F92CDB7DEB76983209170
:1018A000F9022223D1F02091FA02203240F021E007
:1018B00030E0FC013383228380E090E015C080910A
:1018C000FB02E82FF0E0E450FD4F998190838F5F99
:1018D0008093FB028093FA0205C061E0CE0101967D
:1018E0000E947B0D81E090E00F90DF91CF910895F1
:1018F000FC011382128248EE53E060E070E0448302
:1019000055836683778388EC91E091838083089583
:1019100010921E0310921D031092FB021092FA0205
:101920000C94C60C862F413208F040E26FE173E060
:101930000E94E40C10921E0380931D03089521E081
:101940000C94920C81E08093F90260931C03109236
:10195000FB021092FA0208950F93062F21E04091A6
:10196000FA026CEF72E080911C030E94280D109225
:10197000FB021092FA021092F9020F91089561E0B1
:101980000C94AC0C8DEE92E00C94780C1092AC039D
:1019900081E08093AA031092A90361E082E00E9493
:1019A000661461E083E00E946614E9EBF0E0808158
:1019B0008E7F808380818D7F808388E48093B800D0
:1019C00085E48093BC000895413208F03FC09091B7
:1019D000AC039111FCCF91E09093AC032093AA0348
:1019E0002FEF20933F0310928403240F209383034F
:1019F0009093AB039091AB03880F892B8093AB033B
:101A00008091A903813041F41092A9038091AB0326
:101A10008093BB0085EC01C085EE8093BC00809173
:101A2000AC038130E1F380918403841710F440917A
:101A3000840325E833E0FB01D9018A2F821B841738
:101A400018F48D918193F9CF842F089580E0089543
:101A50000F93413208F046C09091AC039111FCCF36
:101A600092E09093AC030093AA039FEF90933F03FF
:101A70001092840340938303FB0165E873E0DB016C
:101A80009A2F961B941718F491919D93F9CF109269
:101A9000AB039091AB03880F892B8093AB038091AC
:101AA000A903813041F41092A9038091AB03809384
:101AB000BB0085EC01C085EE8093BC00222321F0A1
:101AC0008091AC038230E1F380913F038F3F61F05E
:101AD00080913F03803251F080913F03803341F485
:101AE00083E007C081E005C080E003C082E001C060
:101AF00084E00F910895613298F42091AC03243072
:101B000089F460936103FC0183E693E0DC012A2FF2
:101B1000281B261718F421912D93F9CF80E0089502
:101B200081E0089582E0089585ED8093BC00809166
:101B3000BC0084FDFCCF1092AC03089585EC80932B
:101B4000BC001092AC0308951F920F920FB60F9233
:101B500011242F933F934F935F936F937F938F93B2
:101B60009F93AF93BF93EF93FF938091B900887FCA
:101B7000803609F49CC068F5883209F45BC090F4A3
:101B8000803109F454C038F4882309F4F5C0883052
:101B900009F44DC0F5C0883109F44CC0803209F415
:101BA0005DC0EEC0803409F468C048F4803309F4A5
:101BB00055C0883309F0E4C080933F03A8C0803546
:101BC00009F44FC0883509F45DC0883409F0D8C0E5
:101BD000D5C0883909F4C6C0A8F4883709F467C0AD
:101BE00038F4883609F463C0803709F460C0C8C08F
:101BF000883809F4B7C0803909F45FC0803809F02B
:101C0000BFC05BC0803B09F485C038F4803A09F45A
:101C100066C0883A09F47EC0B3C0803C09F4A6C00F
:101C2000883C09F4A3C0883B09F489C0A9C080910D
:101C3000AB0310C09091840380918303981770F5D3
:101C4000E091840381E08E0F80938403F0E0EB57F2
:101C5000FC4F80818093BB0085EC85C080933F035F
:101C60008DC0E091840381E08E0F80938403809186
:101C7000BB00F0E0EB57FC4F808390918403809190
:101C800083036DC0E091840381E08E0F8093840311
:101C90008091BB00F0E0EB57FC4F80838091AA035A
:101CA00081116CC081E08093A90384EA60C083E065
:101CB0008093AC0310924003CFCF809140038032D9
:101CC00008F050C0E091400381E08E0F8093400304
:101CD0008091BB00F0E0EF5BFC4F8083BDCF809133
:101CE0004003803230F4E0914003F0E0EF5BFC4FC2
:101CF00010820E94940D6091400370E0E091A50372
:101D0000F091A60381E493E00995109240030E94AC
:101D10009E0D36C084E08093AC0310926203109253
:101D20006103E091A703F091A803099580916103F5
:101D3000811105C081E08093610310926303E091FB
:101D4000620381E08E0F80936203F0E0ED59FC4F57
:101D500080818093BB00909162038091610398170A
:101D600008F47ACF85E88093BC000AC085EC8093A4
:101D7000BC001092AC0304C010923F030E94940D6B
:101D8000FF91EF91BF91AF919F918F917F916F9153
:101D90005F914F913F912F910F900FBE0F901F9029
:101DA00018950F931F93CF93DF93EC018B018881DC
:101DB0009981DC01ED91FC916F770190F081E02D2C
:101DC000099588819981DC01ED91FC91B801660F3C
:101DD000672F661F770B6F770190F081E02DDF9101
:101DE000CF911F910F910994DC018D919C91DC01A1
:101DF000ED91FC910190F081E02D60EF0994DC0100
:101E00008D919C91DC01ED91FC910190F081E02D90
:101E100067EF0994CF93DF93EC0188819981DC010E
:101E2000ED91FC910190F081E02D69EF0995888199
:101E30009981DC01ED91FC910190F081E02D62E04F
:101E4000099588819981DC01ED91FC910190F081E7
:101E5000E02D63E0DF91CF9109941F93CF93DF933F
:101E6000EC018A818823D9F1CE010E94F40E888189
:101E70009981DC01ED91FC910190F081E02D69E701
:101E8000099588819981DC01ED91FC91AB81BC8140
:101E90000190F081E02D6C91099588819981DC0198
:101EA000ED91FC91AB81BC810190F081E02D119608
:101EB0006C91099512E08A81181758F4EB81FC8126
:101EC000E10FF11D608170E0CE010E94D10E1F5F15
:101ED000F2CFCE01DF91CF911F910C94FF0EDF91D5
:101EE000CF911F910895AF92BF92CF92DF92EF9260
:101EF000FF920F931F93CF93DF93EC018B01A42EDE
:101F0000B22E64ED71E0C8010E94531D6C016FE2B6
:101F100070E0C8010E94481D01967C01C114D104E3
:101F200041F0009731F0C81AD90AC394C394CA8209
:101F300008C0F80101900020E9F7E01BEF5FEA8399
:101F400078018B819C810E94AA1C0A8110E0C80143
:101F50000E94121C9C838B83DC01A00FB11F1C927A
:101F6000FC01A082B1824A8150E042505109B70180
:101F70000296DF91CF911F910F91FF90EF90DF902C
:101F8000CF90BF90AF900C94391DDC018D919C9146
:101F9000DC01ED91FC910480F581E02D09941F9303
:101FA000CF93DF93EC018885813741F08937B9F50C
:101FB000CE01DF91CF911F910C942D0F8FA998AD79
:101FC000892BD1F129A53AA5C901019797FDC9012E
:101FD00095958795182F99270E94121C482FFC0170
:101FE00021E03E2F341B3117A0F4DE01A20FB11DFA
:101FF00018963C91308351E0520FDE01A50FB11DC0
:1020000018965C9160E8569F3019112431932E5F29
:10201000E8CFEFA9F8ADDF91CF911F910994E9AD19
:10202000FAAD309749F0AE01475F5F4F69A5615047
:10203000DF91CF911F910994DF91CF911F91089566
:102040000F931F93CF93DF93EC018A0188819981CD
:10205000DC01ED91FC916F70606E0190F081E02DDC
:102060000995B801CE01DF91CF911F910F910C948A
:10207000D10E0F931F93CF93DF93EC018A018881D8
:102080009981DC01ED91FC916F7060690190F081A4
:10209000E02D099588819981DC01ED91FC91602FFB
:1020A0006F770190F081E02D099588819981DC019D
:1020B000ED91FC91B801660F672F661F770B0190B9
:1020C000F081E02DDF91CF911F910F910994CF9274
:1020D000DF92EF92FF920F931F93CF93DF9300D085
:1020E0001F92CDB7DEB78C01F42E2A833B83698320
:1020F0000E94F40ED8018D919C91DC01ED91FC9130
:102100000190F081E02D698109952A81E22EC22E8D
:102110003B81D32E8C2D8E198F1540F4F6016191E1
:102120006F0170E0C8010E94D10EF4CFC8010F907A
:102130000F900F90DF91CF911F910F91FF90EF9033
:10214000DF90CF900C94FF0E9A01FA0101900020CD
:10215000E9F73197E41BF50B4E2F0C946710AB0198
:1021600061E70C94A410FC01603DA1F028F46039F3
:1021700059F0603C61F00895603E19F0643F69F0E9
:10218000089554A743A7089556A745A7089550ABAF
:1021900047A7089552AB41AB089554AB43AB0895A4
:1021A0006F3F19F4FC0156AB45AB0895FC0152AFEB
:1021B00041AF0895FC0115821682178280E090E0FD
:1021C000DF01A80FB91F18961C9201968032910565
:1021D000B9F710A612A611A605A8F6A9E02D30970A
:1021E00009F009940895FC011282148213820C9460
:1021F000DA10CF93DF93EC0188819981DC01ED91B6
:10220000FC910680F781E02D099528A52223A1F0F5
:10221000873F910531F418A6CE01DF91CF910C9440
:10222000CF0F29A53AA5FE01E20FF31F80872F5F8C
:102230003F4F3AA729A789C02D81222309F44CC01A
:10224000803891050CF048C09FEF920F9D83FE01EE
:10225000E90FF11D8087911178C08E81882309F4E0
:1022600074C0803D79F138F48039B9F0803C91F543
:10227000EFA5F8A929C0803E19F0843FD9F02AC003
:10228000EBA5FCA5309731F18885698570E0B0E851
:102290008B9F600D711D11241BC0EDA5FEA530970D
:1022A000C9F08885698570E090E8899F600D711D8F
:1022B00011240EC0EBA9FCA9309761F0688570E08D
:1022C000898507C0E9A9FAA9309721F0688570E0EF
:1022D0008F8109951E8239C0803F91052CF4282FEB
:1022E0002F702F83807F9927803E910511F154F440
:1022F000803C910501F1803D9105E9F0803991051F
:1023000021F517C0843F9105A1F044F4803F910569
:10231000E1F481E088A71AA619A617C0893F9105A4
:1023200071F08F3F910589F4CE01DF91CF910C942C
:10233000DA1092E001C091E09D838E8306C08DEAA1
:1023400093E0DF91CF910C940A0FDF91CF91089524
:102350008F929F92AF92BF92CF92DF92EF92FF92B5
:102360001F93CF93DF93EB014A01690161E08DE098
:102370000E942D1410E0EE24D7FCE094FE2CAA2439
:1023800097FCA094BA2C812F90E08C179D0794F4B1
:10239000C701B6010E94A01261E08DE00E946614A0
:1023A000C501B4010E94A01260E08DE00E94661495
:1023B0001F5FE9CFDF91CF911F91FF90EF90DF90EA
:1023C000CF90BF90AF909F908F900895CF93DF9361
:1023D000EC0161E08DE00E942D1422ED30E048E236
:1023E00050E062E070E0CE010E94A8116AEF70E058
:1023F00080E090E00E94A01222ED30E048E250E040
:1024000063E070E0CE010E94A8116DE770E080E00B
:1024100090E0DF91CF910C94A012CF93DF93EC0169
:1024200081EF93E00E94071681EF93E09983888300
:10243000CE010E94E611CE010E940A0FCE01DF916B
:10244000CF910C942D0F8DEA93E00C94F3101F9212
:102450000F920FB60F9211242F933F938F939F9358
:10246000AF93BF938091E9039091EA03A091EB03AE
:10247000B091EC033091E80323E0230F2D3720F4D3
:102480000196A11DB11D05C026E8230F0296A11DCE
:10249000B11D2093E8038093E9039093EA03A0938E
:1024A000EB03B093EC038091ED039091EE03A091C8
:1024B000EF03B091F0030196A11DB11D8093ED03D0
:1024C0009093EE03A093EF03B093F003BF91AF910D
:1024D0009F918F913F912F910F900FBE0F901F9062
:1024E00018952FB7F8946091E9037091EA038091F1
:1024F000EB039091EC032FBF08953FB7F8948091C0
:10250000ED039091EE03A091EF03B091F00326B597
:10251000A89B05C02F3F19F00196A11DB11D3FBF1B
:102520006627782F892F9A2F620F711D811D911DAB
:1025300042E0660F771F881F991F4A95D1F70895CB
:10254000CF92DF92EF92FF92CF93DF936B017C01EA
:102550000E947D12EB01C114D104E104F10489F061
:102560000E94511A0E947D126C1B7D0B683E7340C5
:1025700090F381E0C81AD108E108F108C851DC4F96
:10258000EACFDF91CF91FF90EF90DF90CF90089549
:10259000019739F0880F991F880F991F02970197AB
:1025A000F1F70895789484B5826084BD84B5816024
:1025B00084BD85B5826085BD85B5816085BDEEE64B
:1025C000F0E0808181608083E1E8F0E0108280812A
:1025D00082608083808181608083E0E8F0E0808198
:1025E00081608083E1E9F0E0808182608083808186
:1025F00081608083E0E9F0E0808181608083E1ECAC
:10260000F0E080818460808380818260808380812B
:1026100081608083E3ECF0E0808181608083E0EC86
:10262000F0E0808182608083E2ECF0E08081816074
:102630008083EAE7F0E0808184608083808182602B
:102640008083808181608083808180688083089519
:10265000823108F08251E82FF0E0E45FFE4FE49110
:1026600080917B00E3FB222720F930E095E0220FE8
:10267000331F9A95E1F78F7D822B80937B00E77063
:1026800080910D0120E4829FC0011124E82BE0938A
:102690007C0080917A00806480937A0080917A0037
:1026A00086FDFCCF809178002091790090E0922BFC
:1026B00008951F93CF93DF93182FEB0161E00E94E1
:1026C0002D14209711F460E004C0CF3FD10539F4F8
:1026D00061E0812FDF91CF911F910C946614E12F5F
:1026E000F0E0E85EFE4F449150E0FA013197EF30A0
:1026F000F10508F06CC0E859FF4F0C94F21B84B54B
:10270000806884BDC7BD68C084B5806284BDC8BD13
:1027100063C080918000806880938000D09389009E
:10272000C093880059C080918000806280938000AF
:10273000D0938B00C0938A004FC080918000886046
:1027400080938000D0938D00C0938C0045C0809111
:102750009000806880939000D0939900C093980077
:102760003BC080919000806280939000D0939B004A
:10277000C0939A0031C0809190008860809390004F
:10278000D0939D00C0939C0027C08091C0008068BA
:102790008093C0008091C0008F7B8093C000C09365
:1027A000CF001AC08091C00080628093C000C093A7
:1027B000D00012C08091C20088608093C2008091D6
:1027C000C2008B7F8093C200C093D20005C0C03886
:1027D000D1050CF07DCF77CFDF91CF911F91089578
:1027E00090E0FC013197EF30F105B0F5E958FF4F6B
:1027F0000C94F21B809180008F7703C08091800041
:102800008F7D80938000089580918000877FF9CF2D
:1028100084B58F7702C084B58F7D84BD0895809183
:1028200090008F7707C0809190008F7D03C08091CA
:102830009000877F8093900008958091C0008F77EB
:1028400003C08091C0008F7D8093C0000895809167
:10285000C200877F8093C2000895CF93DF9390E0FA
:10286000FC01EA5CFE4F2491FC01EC5AFE4F84917E
:10287000882349F190E0880F991FFC01E257FE4F31
:10288000A591B49180589E4FFC01C591D4919FB7FA
:10289000611108C0F8948C91209582238C938881D3
:1028A00082230AC0623051F4F8948C91322F309513
:1028B00083238C938881822B888304C0F8948C9125
:1028C000822B8C939FBFDF91CF9108950F931F931D
:1028D000CF93DF931F92CDB7DEB7282F30E0F901F9
:1028E000E85EFE4F8491F901EA5CFE4F1491F90114
:1028F000EC5AFE4F04910023C9F0882321F069832C
:102900000E94F0136981E02FF0E0EE0FFF1FE05806
:10291000FE4FA591B4919FB7F8948C91611103C0BB
:102920001095812301C0812B8C939FBF0F90DF9165
:10293000CF911F910F910895CF93DF93282F30E00F
:10294000F901E85EFE4F8491F901EA5CFE4FD491F3
:10295000F901EC5AFE4FC491CC2391F081110E94F1
:10296000F013EC2FF0E0EE0FFF1FEE58FE4FA59195
:10297000B4912C912D2381E090E021F480E002C0FD
:1029800080E090E0DF91CF910895CF92DF92EF92B7
:10299000FF920F931F93CF93DF9390E0FC01EA5CCB
:1029A000FE4FD491FC01EC5AFE4F7491611102C0AC
:1029B000C0E001C0CD2FDA01C901BF70672F70E000
:1029C000660F771F6E587E4F00E010E09801FB0104
:1029D000E590F490F70140814D234C131EC068012F
:1029E00079014FEFC41AD40AE40AF40A0817190748
:1029F0002A073B0709F442C097018601E8CF680126
:102A00007901FFEFCF1ADF0AEF0AFF0A081719074B
:102A10002A073B0799F197018601FB01E590F490A5
:102A2000F70140814D234C13EACF801B910BA20B81
:102A3000B30B20E030E0A901FB01E590F490F70131
:102A4000F080FD22FC120AC0281739074A075B07ED
:102A5000A9F02F5F3F4F4F4F5F4FEECFA8E1B0E09F
:102A60000E94F81B605F7F4F8F4F9F4F24E0969529
:102A70008795779567952A95D1F703C060E070E058
:102A8000CB01DF91CF911F910F91FF90EF90DF90DD
:102A9000CF900895CF93DF931F92CDB7DEB76983B0
:102AA000DC01ED91FC910280F381E02D41E050E0EA
:102AB000BE016F5F7F4F09950F90DF91CF91089511
:102AC000CF93DF93EC018C859D8597FF05C082E055
:102AD0000E9437179D878C878C859D85DF91CF91CC
:102AE000089583E00C948C19FC018485958597FDED
:102AF00006C082E00E94DF1690E00196089582E011
:102B00000E94DF1690E00895FC018485958597FD6D
:102B100005C02FEF3FEF35872487089582E00C949E
:102B20003717CF93DF93EC0180911501882331F0A3
:102B300083E00E9468171816190634F081E090E0CF
:102B40009B838A8380E090E0DF91CF910895FC0120
:102B500020812E5F208342E450E06CE971E080E840
:102B60000C940318FC0181819081913A59F48132CF
:102B700009F03CC047E050E06EE071E080E00E9468
:102B8000031843C0913291F5803239F467E070E068
:102B90008EE091E00E94341806C0823209F035C000
:102BA00082818093150180910E0190910F01A09177
:102BB0001001B0911101803B9440A105B105C1F411
:102BC0008091150180FD14C087E797E79093010875
:102BD000809300082BE088E190E00FB6F894A89568
:102BE000809360000FBE209360000FC080E00895C6
:102BF00088E10FB6F89480936000109260000FBED9
:102C0000A895109201081092000881E008952FEF16
:102C10003FEFFC013587248708951092F40310924A
:102C2000F30388EE93E0A0E0B0E08093F503909387
:102C3000F603A093F703B093F8038DED91E0909322
:102C4000F2038093F1038FEF9FEF9093FE03809345
:102C5000FD03089508950E94D2120E942A1681E46D
:102C600094E00E94EC190E946C05C0E0D0E00E9444
:102C700028062097E1F30E940000F9CFCF92DF925F
:102C8000EF92FF920F931F93CF93DF936C017A0122
:102C9000EB01E60EF71E00E010E0CE15DF0561F057
:102CA0006991D601ED91FC910190F081E02DC60172
:102CB0000995080F191FF1CFC801DF91CF911F911E
:102CC0000F91FF90EF90DF90CF90089540914504D1
:102CD0005091460420914304309144044217530715
:102CE000B4F49091E8009570E1F39091E80092FDC2
:102CF00019C08093F100809145049091460401969B
:102D00008F739927892B19F48EEF8093E8008091B7
:102D1000450490914604019690934604809345049F
:102D200081E0089580E00895CF92DF92FF920F93A3
:102D30001F93CF93DF931F92CDB7DEB7082F162FC7
:102D4000862F880F8E5F99830E94661683E00E940B
:102D50006616F02EC02E9981D92E8C2D8F198117D1
:102D600078F4F60184910E946616082F80E00E9494
:102D700066168023FFEFCF1ADF0A8111EECF01C064
:102D800081E00F90DF91CF911F910F91FF90DF9025
:102D9000CF900895615030F02091F100FC01208324
:102DA0000196F8CF289884E68093480408952FB7B9
:102DB000FC012083F89467706093E9000895CF9335
:102DC000DF931F92CDB7DEB7682FCE0101960E9428
:102DD000D7168091F20099819FBF0F90DF91CF911C
:102DE0000895FF920F931F93CF93DF9300D0CDB739
:102DF000DEB7F62E8A0190914704992311F057FF10
:102E000003C08FEF9FEF2BC0682FCE0101967A830E
:102E10000E94D7168091F20090E0A8017A81801775
:102E200091070CF4AC01EF2DF72FF40E84E6FE169B
:102E300039F02898809348049091F1009193F7CF4E
:102E40004115510521F08091F200882321F08981FC
:102E50008FBFCA0104C08BE68093E800F8CF0F90C3
:102E60000F90DF91CF911F910F91FF900895CF9315
:102E7000DF931F92CDB7DEB741E050E0BE016F5F38
:102E80007F4F0E94F116019719F4898190E002C0EA
:102E90008FEF9FEF0F90DF91CF910895CF93DF9346
:102EA0001F92CDB7DEB7682FCE0101960E94D716CC
:102EB0009091E800892F807295FF04C09091F200F4
:102EC00080E4891B99819FBF0F90DF91CF91089576
:102ED0006F927F928F929F92AF92BF92CF92DF922A
:102EE000EF92FF920F931F93CF93DF931F92CDB773
:102EF000DEB7782E7B01C42EB52E8091470488233F
:102F000069F0042F152F8AEFD82E872D8072982E06
:102F10009AE3A92E872D8074882E11C08FEF9FEF22
:102F200057C0872D0E944E17682E81110CC0DA946D
:102F3000A9F361E070E080E090E00E94A01201152A
:102F4000110579F73BC0282F30E0021713070CF466
:102F5000602E672DCE0101960E94D7168091E80061
:102F600085FF29C0262D30E0021B130B992039F074
:102F70006A948FEF6816B1F01092F100F9CFF70163
:102F8000862D77FE07C0815058F094919093F10000
:102F90003196F9CF815020F091919093F100FACFC2
:102FA000E20EF31E8091E80085FF0FC001151105A8
:102FB00011F481100AC089818FBFC1CF5D9884E66A
:102FC000809349048C2D9B2D03C0A092E800F3CF81
:102FD0000F90DF91CF911F910F91FF90EF90DF90B5
:102FE000CF90BF90AF909F908F907F906F900895FB
:102FF0001092E90010924604109245049093440404
:10300000809343040895CF92DF92FF920F931F9312
:10301000CF93DF9300D0CDB7DEB7F82E8A016B01D6
:1030200001151105B1F0F601F7FE02C0849101C04F
:10303000808149835A830E94661601501109FFEF6F
:10304000CF1ADF0A49815A818111EACF8FEF9FEFB2
:1030500001C0CA010F900F90DF91CF911F910F9186
:10306000FF90DF90CF9008951F93CF93DF931F922F
:10307000CDB7DEB7162F2091E80022FFFCCF612FDD
:1030800079830E94CA168BEF8093E800812F7981A3
:10309000972F0F90DF91CF911F910895CF93DF93DA
:1030A0001F92CDB7DEB71982CE0101960E94A715F7
:1030B000CE0101960E94701A898190E00F90DF91F5
:1030C000CF9108951F920F920FB60F921124EF9295
:1030D000FF920F931F932F933F934F935F936F93A1
:1030E0007F938F939F93AF93BF93EF93FF93CF9370
:1030F000DF93CDB7DEB76297DEBFCDBF1092E90098
:103100008091E80083FFEBC068E0CE010A960E9440
:10311000CA1682EF8093E8009A8597FF05C08091D8
:10312000E80080FFFCCF03C08EEF8093E800892F7A
:10313000807609F0B9C08B85811105C01092F1002D
:103140001092F100C5C0282F2D7F213009F4C0C096
:10315000853049F48091E80080FFFCCF8C85806841
:103160008093E300B5C0863009F076C02D85E888ED
:10317000F988223071F580E090E02A8B0E94F817E0
:103180000E944E1899E08E010F5F1F4FF801392FF2
:1031900011923A95E9F799832A892A8391E09E83CF
:1031A00090E898879AEF99872091450430914604DA
:1031B000275F3F4F3C832B838D83C7010E94F81705
:1031C00049E050E0B80180E00E9403180E944E18C8
:1031D0007FC0C7012A8B0E94F8172A89223241F446
:1031E00082E290E00E947B1A892B09F071C074C0C2
:1031F000213069F488899989089711F42093420451
:1032000080914204811118C065EF71E01AC023302B
:1032100009F062C08C85882391F0823021F460E14E
:1032200083E192E006C0813009F056C06BE087E090
:1032300092E00E9494164AC063EE71E002C064E21C
:1032400072E06115710509F447C0FB01449150E03B
:1032500080E80E9403183CC0873009F43DC08830E4
:1032600021F481E08093F10033C0893089F59370B7
:1032700099F5EFEDF1E081E021E096E38093E9003C
:103280002093EB0034913093EC009093ED008F5F2E
:103290003196853099F78EE78093EA001092EA0024
:1032A0008C858093470414C0888999890E94F817F7
:1032B0008E85811105C0CE010A960E94B21506C006
:1032C000823051F4CE010A960E94A31A882321F07D
:1032D0008EEF8093E80003C081E28093EB0062965A
:1032E0000FB6F894DEBF0FBECDBFDF91CF91FF9137
:1032F000EF91BF91AF919F918F917F916F915F916E
:103300004F913F912F911F910F91FF90EF900F9050
:103310000FBE0F901F9018958093E9008091F200E6
:10332000882319F08AE38093E80008951F920F9292
:103330000FB60F9211242F933F934F935F936F9388
:103340007F938F939F93AF93BF93EF93FF9380915E
:10335000E1001092E10083FF0FC01092E90091E0BC
:103360009093EB001092EC0092E39093ED0010929A
:10337000470498E09093F00082FF1DC083E00E9414
:103380008C1980914904882339F080914904815037
:1033900080934904882369F080914804882359F078
:1033A00080914804815080934804811104C0289A78
:1033B00002C05D9AF1CFFF91EF91BF91AF919F91C4
:1033C0008F917F916F915F914F913F912F910F90CE
:1033D0000FBE0F901F9018951092470481E08093C4
:1033E000D70080EA8093D80082E189BD09B400FE4D
:1033F000FDCF61E070E080E090E00E94A01280E9E3
:103400008093D8008CE08093E2001092E000559AFF
:10341000209A08954F925F926F927F92AF92BF92DF
:10342000CF92DF92EF92FF920F931F93CF93DF9390
:10343000CDB7DEB729013A01621B730B840B950BE4
:1034400029893A894B895C892A193B094C095D090C
:10345000298B3A8B4B8B5C8B9B01AC0169897A89F8
:103460008B899C890E94951BE418F50806091709A9
:10347000A80197010E94D31B2A0D3B1D4C1D5D1D09
:10348000CA01B901DF91CF911F910F91FF90EF9089
:10349000DF90CF90BF90AF907F906F905F904F90F4
:1034A00008950895FF920F931F93CF93DF93EC013C
:1034B000F62EE881F9810480F581E02D09958C01D3
:1034C000E881F9810680F781E02D6F2DCE01099505
:1034D000C8019927DF91CF911F910F91FF90089517
:1034E000FC0120812F5F208349E150E068EA72E00F
:1034F00080E80C94031845E650E061EC72E080E847
:103500000C940318EF92FF920F931F93CF93DF93C6
:103510001F92CDB7DEB789838B017A0141E050E07D
:10352000BE016F5F7F4F84E00E946817A701B8015A
:1035300084E40E9468170F90DF91CF911F910F9143
:10354000FF90EF900895FC0191818081813A31F4E0
:1035500081E0913091F0933089F411C0813271F49F
:103560009B3021F482818093170105C09A3031F499
:1035700082818093160181E00895089580E0089586
:1035800048E050E082E00C94821ACF93DF93DC0194
:10359000683818F0E8E7E60F25C0E62FF0E067FF8F
:1035A00011C0E058F10981E090E001C0880FEA9570
:1035B000EAF714969C911497982B14969C93149761
:1035C000E0E010C0E85DFD4FE491EE2309F440C057
:1035D000E7FF08C014968C911497826014968C9320
:1035E0001497EF7716968C9116978E1741F11796D0
:1035F0008C9117978E1719F118968C9118978E1732
:10360000F1F019968C9119978E17C9F01A968C9132
:103610001A978E17A1F01B968C911B978E1779F035
:1036200080E090E0ED01C80FD91F2E81211102C06A
:10363000EE8305C0019686309105A1F709C0BD0152
:103640006C5F7F4FCD010E94C01A81E090E008C0FE
:1036500081E090E013969C938E93129780E090E027
:10366000DF91CF910895683818F0E8E7E60F25C09C
:10367000E62FF0E067FF12C0E058F10921E030E0EA
:1036800001C0220FEA95EAF72095DC0114963C91DF
:103690001497322314963C93E0E00FC0E85DFD4F91
:1036A000E491EE2329F1E7FF08C0DC0114962C9188
:1036B00014972D7F14962C93EF7720E030E0EE23C3
:1036C00051F0DC01A20FB31F16964C9116974E13C2
:1036D00002C016961C922F5F3F4F2630310579F7B6
:1036E000BC016C5F7F4F0E94C01A81E090E008959A
:1036F00080E090E00895FC01168217821086118602
:10370000128613861482BC016C5F7F4F0C94C01A22
:103710001092560410924D0410924C048DEE91E0DC
:1037200090934B0480934A040895DB018F939F93F9
:103730000E94F81BBF91AF91A29F800D911DA39F86
:10374000900DB29F900D11240895991B79E004C04B
:10375000991F961708F0961B881F7A95C9F78095D0
:103760000895A1E21A2EAA1BBB1BFD010DC0AA1FC2
:10377000BB1FEE1FFF1FA217B307E407F50720F0DA
:10378000A21BB30BE40BF50B661F771F881F991F55
:103790001A9469F760957095809590959B01AC019E
:1037A000BD01CF010895052E97FB1EF400940E94E1
:1037B000EA1B57FD07D00E94B11B07FC03D04EF453
:1037C0000C94EA1B50954095309521953F4F4F4FF3
:1037D0005F4F089590958095709561957F4F8F4FBD
:1037E0009F4F0895EE0FFF1F0590F491E02D09946F
:1037F0000E94031CA59F900DB49F900DA49F800D67
:10380000911D11240895A29FB001B39FC001A39FF1
:10381000700D811D1124911DB29F700D811D112409
:10382000911D0895CF93DF938230910510F482E0CB
:1038300090E0E0915904F0915A0420E030E0A0E0DB
:10384000B0E0309739F14081518148175907B8F0FD
:103850004817590771F482819381109729F01396C4
:103860009C938E9312972CC090935A048093590482
:1038700027C02115310531F04217530718F0A9016F
:10388000DB0101C0EF019A01BD01DF010280F3817C
:10389000E02DD7CF21153105F9F0281B390B243045
:1038A000310580F48A819B816115710521F0FB014E
:1038B0009383828304C090935A0480935904FE0139
:1038C000329644C0FE01E20FF31F81939193225080
:1038D0003109398328833AC0209157043091580424
:1038E000232B41F4209102013091030130935804BD
:1038F00020935704209100013091010121153105D9
:1039000041F42DB73EB74091040150910501241BAD
:10391000350BE0915704F0915804E217F307A0F437
:103920002E1B3F0B2817390778F0AC014E5F5F4F15
:103930002417350748F04E0F5F1F509358044093EB
:1039400057048193919302C0E0E0F0E0CF01DF9152
:10395000CF910895CF93DF93009709F487C0FC01BE
:10396000329713821282C0915904D0915A04209741
:1039700081F420813181280F391F80915704909163
:1039800058048217930779F5F0935804E09357048D
:103990006DC0DE0120E030E0AE17BF0750F4129694
:1039A0004D915C9113979D014115510509F1DA0183
:1039B000F3CFB383A28340815181840F951F8A176F
:1039C0009B0771F48D919C911197840F951F02961E
:1039D0009183808312968D919C9113979383828318
:1039E0002115310529F4F0935A04E09359043EC09F
:1039F000D9011396FC93EE9312974D915D91A40F0C
:103A0000B51FEA17FB0779F480819181840F951F18
:103A10000296D90111969C938E938281938113967D
:103A20009C938E931297E0E0F0E08A819B8100974F
:103A300019F0FE01EC01F9CFCE01029628813981FF
:103A4000820F931F2091570430915804281739078B
:103A500069F4309729F410925A041092590402C064
:103A600013821282D0935804C0935704DF91CF91F0
:103A70000895FB01DC014150504048F001900D9247
:103A80000020C9F701C01D9241505040E0F7089551
:103A9000FC0181E090E00190061609F4CF010020BE
:103AA000D1F701970895FB0151915523A9F0BF016A
:103AB000DC014D9145174111E1F759F4CD01019019
:103AC000002049F04D9140154111C9F3FB0141110E
:0E3AD000EFCF81E090E001970895F894FFCFCA
:103ADE0000005B04800001000000FF13000100E104
:103AEE000000000000000101556E6B6E6F776E20B6
:103AFE0070696E206D6F64650058692D4669726D30
:103B0E006174612E696E6F004932432052656164A3
:103B1E00204572726F723A20546F6F206D616E790C
:103B2E0020627974657320726563656976656400D9
:103B3E004932432052656164204572726F723A2099
:103B4E00546F6F2066657720627974657320726595
:103B5E006365697665640031302D62697420616435
:103B6E006472657373696E67206D6F646520697327
:103B7E00206E6F742079657420737570706F727417
:103B8E00656400746F6F206D616E7920717565725A
:103B9E006965730000000000490C1C0CF10BF90B59
:103BAE000C0C1B0C2E63707000000000004A159167
:103BBE0015741584156015711500000000521A3E1B
:083BCE0016C51A331B7B1B0016
:00000001FF
